:020000040800F2
:10000000700D0020C10100084D350008452700088B
:1000100039320008390A0008F53F000800000000E6
:100020000000000000000000000000007135000822
:10003000ED0A0008000000006F3500089D3600083A
:10004000DB010008DB010008DB010008DB01000820
:10005000DB010008DB010008DB010008DB01000810
:10006000DB010008DB010008DB010008DB01000800
:10007000DB010008DB010008DB010008DB010008F0
:10008000DB010008DB01000815030008DB010008A4
:10009000DB010008DB010008DB010008DB010008D0
:1000A000DB010008DB010008DB010008DB010008C0
:1000B000DB010008A9370008DB010008DB010008AC
:1000C000DB010008DB010008DB010008DB010008A0
:1000D000DB010008913E0008BD3E0008E93E000833
:1000E000DB010008DB010008DB010008DB01000880
:1000F000DB010008DB010008DB010008DB01000870
:10010000DB010008DB010008DB010008DB0100085F
:10011000DB010008DB010008DB010008DB0100084F
:100120003D0A0008DB010008DB010008DB010008D4
:10013000DB010008DB010008DB010008DB0100082F
:10014000DB010008DB010008DB010008DB0100081F
:10015000DB010008DB010008DB010008DB0100080F
:10016000DB010008DB010008DB010008DB010008FF
:10017000DB010008DB010008DB01000800000000D3
:10018000DB010008DB010008DB010008DB010008DF
:10019000DB010008DB010008DB010008DB010008CF
:1001A000DB010008DB010008DB010008DFF80CD0F0
:1001B00000F018F800480047E1420008700D0020E8
:1001C0000648804706480047FEE7FEE7FEE7FEE7F1
:1001D000FEE7FEE7FEE7FEE7FEE7FEE7553700082D
:1001E000AD010008064C074D06E0E06840F0010351
:1001F00094E8070098471034AC42F6D3FFF7DAFFD3
:100200007C4400089C4400082DE9F0478146002604
:1002100015460C463746480004F0EEF806E000BFED
:1002200039F8171020F817107F1CBFB2A742F7D378
:100230000023621E14E000210EE000BF00EB410825
:1002400030F81170B8F802C0674503D220F811C029
:10025000A8F80270491C89B29142EFDB5B1C9BB28B
:100260009342E8DB2946621A05E000BF39F81130F5
:10027000491C1E4489B28A42F8DC694204EB410100
:10028000B6FBF1F18CB203F0EBFF2046BDE8F0873E
:1002900010B50146806B026C12F0500F05D0806BD8
:1002A000C26CBDE8104008461047016C41F4007173
:1002B000016401688A6812F0405F17D18269AAB9A7
:1002C000CA6A12F4700F02D08A6852050ED44A68C6
:1002D00022F020024A60016C21F480710164016CFB
:1002E000C90403D4016C41F00101016400F0DCFD9C
:1002F00010BD10B5806B40210164416C41F00401D8
:10030000416400F0D3FD10BD10B5806B00F0CDFD51
:1003100010BD0000014800F0CABD0000000600202A
:100320004A4910B5D1F8042322F44032C1F804231D
:10033000D1F8042343681A43C1F8042301684A68CA
:1003400022F480724A6001684A68036942EA032223
:100350004A6001684A6822F040724A6001684A684F
:1003600083681A434A6001688A6822F400628A60DE
:1003700001688A68C3681A438A60816A6FF0706294
:10038000D14201688A6822F070628A6001688A68D6
:100390000CD0836A1A438A6001688A6822F040524E
:1003A0008A6001688A68C36A1A4301E022F04052F9
:1003B0008A6001688A6822F002028A6001688A689D
:1003C000836942EA43028A60016A002901684A6837
:1003D00015D042F400624A6001684A6822F4604223
:1003E0004A6001684B684FF46044426A94FAA4F48E
:1003F000B4FA84F4521EA24013434B6002E022F48C
:1004000000624A600168CA6A22F47002CA62016826
:10041000CA6A838B0E4C04EB03531A43CA62016809
:100420008A6822F400728A6001688A68036B42EA73
:1004300043228A6001688A6822F480628A600168C7
:100440008A68406942EA8020886010BD002001402F
:100450000000F0FF70B514460D46064608E0304631
:10046000711C8EB200F007F8641E05F8010BA4B2EF
:10047000002CF4D170BD10B5044602F0F7FA200A42
:10048000A02101EB4000C0B202F08EFA02F070FB36
:10049000E0B202F089FA02F06BFB02F0E7FAA12069
:1004A00002F082FA02F064FB002002F015FA044622
:1004B00002F01CFB204610BD2DE9F047994C4FF48B
:1004C00080484146204601F0E7F8974D4FF4E67624
:1004D0004FF4005A4FF4004778B13946A146204600
:1004E00001F0DAF848B10020904C28600121204644
:1004F00001F0D2F801281CD082E02868401C286056
:10050000B0F5FA6F7EDD4146204601F0C5F828B10E
:100510003946204601F0C0F8002873D130463146F4
:1005200003F060F851462046BDE8F047012201F093
:10053000B8B80221204601F0AFF8012860D10821A7
:10054000204601F0A9F801285AD11021204601F0D7
:10055000A3F8012854D14146204601F09DF8012816
:100560004ED168684FF6E857401C6860B84247DDD6
:100570000121204601F090F8012841D102212046B6
:1005800001F08AF801283BD10821204601F084F8C7
:10059000B0BB1021204601F07FF8012830D1414640
:1005A000204601F079F801282AD1A868401CA860EB
:1005B000B84225DD0121204601F06EF801281FD147
:1005C0000221204601F068F8012819D108212046AF
:1005D00001F062F8A0B91021204601F05DF8012871
:1005E0000ED14146204601F057F8012808D1304687
:1005F000314602F0F7FF01225146484601F051F81A
:10060000012100E08BE0204601F046F8012816D1D8
:100610000221204601F040F8012810D1082120468F
:1006200001F03AF858B91021204601F035F80128B8
:1006300005D14146204601F02FF8012806D00121BE
:10064000204601F029F8012802D012E0142132E0FE
:100650000221204601F020F858B91021204601F06F
:100660001BF8012805D14146204601F015F8012864
:1006700006D00121204601F00FF8012803D013E035
:1006800014211E2047E00221204601F005F8012830
:100690000AD11021204600F0FFFF28B9414620462C
:1006A00000F0FAFF012805D00121204600F0F4FFF8
:1006B00018B114E01E2114202DE00221204600F084
:1006C000EBFF01280BD11021204600F0E5FF0128A7
:1006D00005D14146204600F0DFFF012819D0012155
:1006E000204600F0D9FF012819D10221204600F050
:1006F000D3FF012813D11021204600F0CDFF01289F
:100700000DD14146204600F0C7FF002807D128211F
:10071000D1E714212820BDE8F04702F063BFBDE80F
:10072000F0870000000002400800002000040240A2
:1007300070B51B4C1B480021227903799A422ED0B8
:10074000627943799A422AD0A27983799A4226D053
:10075000E279C3799A4222D0134A127802E0435CCC
:100760006354491C9142FADD104900204FF47A7518
:1007700008802B4604220E490E4801F085FF2B46C7
:100780000422211D0B4801F07FFF2B4601220A495C
:10079000084801F079FFBDE8704000F01BBA70BD59
:1007A000A4000020040400208F0000202600002068
:1007B00061000020C4030020650000202DE9F047FF
:1007C000994C4FF480463146204600F065FF974D26
:1007D0004FF40059770078B13946A046204600F022
:1007E0005BFF48B10020924CE8600121204600F0F8
:1007F00053FF01281DD086E0E868401CE860B0F592
:10080000FA6F7CDD3146204600F046FF28B13946BC
:10081000204600F041FF002871D14FF4E6700146F8
:1008200002F0E0FE49462046BDE8F047012200F014
:1008300038BF0221204600F02FFF012863D1082194
:10084000204600F029FF01285DD11021204600F04C
:1008500023FF012857D13146204600F01DFF012813
:1008600051D128694FF6E857401C2861B8424ADD4B
:100870000121204600F010FF012844D1022120462A
:1008800000F00AFF01283ED10821204600F004FFB5
:10089000B0BB1021204600F0FFFE012833D13146C5
:1008A000204600F0F9FE01282DD16869401C6861DE
:1008B000B84228DD0121204600F0EEFE012822D1B9
:1008C0000221204600F0E8FE01281CD10821204624
:1008D00000F0E2FEA0B91021204600F0DDFE012864
:1008E00011D13146204600F0D7FE01280BD100215E
:1008F000084602F077FE01224946404601E090E0BA
:1009000001E000F0CEFE4B4C0421204600F0C4FE76
:10091000012816D10821204600F0BEFE012810D182
:100920001021204600F0B8FE58B92021204600F0E2
:10093000B3FE012805D14021204600F0ADFE01287C
:1009400006D00421204600F0A7FE012802D012E0C4
:10095000142132E00821204600F09EFE58B92021E3
:10096000204600F099FE012805D14021204600F0E4
:1009700093FE012806D00421204600F08DFE0128B8
:1009800003D013E014211E2047E00821204600F088
:1009900083FE01280AD12021204600F07DFE28B9DF
:1009A0004021204600F078FE012805D00421204691
:1009B00000F072FE18B114E01E2114202DE0082171
:1009C000204600F069FE01280BD12021204600F0CE
:1009D00063FE012805D14021204600F05DFE01287C
:1009E00019D00421204600F057FE012819D1082112
:1009F000204600F051FE012813D12021204600F0AE
:100A00004BFE01280DD14021204600F045FE002874
:100A100007D12821D1E714212820BDE8F04702F0B2
:100A2000E1BDBDE8F08700000000024008000020A2
:100A30000004024000100240FEE70000014800F000
:100A4000CDBB00004806002001681823CAB2103A46
:100A5000B2FBF3F2054B6FF30901032A9B5CC365FC
:100A600000D9091D816508467047000064440008EC
:100A700010B5014600208B698A6A4FF0C07453B1EB
:100A8000B3F5005F15D072B1012A0CD0022A0AD04A
:100A9000032A09D104E01AB1012A06D0022A03D19F
:100AA000C96AC90100D5012010BDC96AA142FAD0A6
:100AB00010BD002AF7D0012AF2D0022AF3D0032A6F
:100AC000F3D010BD30B50468256825F48025256075
:100AD000046863608368402B036803D099600068F2
:100AE000C26030BD9A600068C16030BD704770B5AB
:100AF0000C4601464FF0784002F0CCF8032003F09A
:100B00007BFB4FF07A4506E0284602F0C3F803204D
:100B1000641C03F071FB21780029F5D170BD000041
:100B2000032202490020FFF795BC00006F0000205F
:100B3000FEE700002DE9F0411F4C00254FF47A78C4
:100B40002078012806D1434604221C491C4801F0A4
:100B50009BFD25701B4E3088012829D11A4801279A
:100B60004178032904D0152915D0032905D018E0B0
:100B70008178102905D0122907D0817820290DD03D
:100B80000FE0C078012812D00BE0C07848B9434686
:100B90000B220E4908E0FFF7CBFD0BE0C078802860
:100BA00008D00B4943460422054801F06DFD35800D
:100BB000BDE8F0812770FAE7850000207D00002065
:100BC0000C0500203A0000200404002072000020E0
:100BD000810000202DE9F0472C48002229490768B0
:100BE0002C480924284D9246294B4FF001090688CC
:100BF00044E000BF57F8220091F80480D0F800C00C
:100C0000C4453AD191F80580D0F804C0C44534D128
:100C100091F80680D0F808C0C4452ED191F807801D
:100C2000D0F80CC0C44528D1D0F810C0BCF1700F6A
:100C300003D0BCF16E0F15D01FE040696C2808D0BE
:100C4000722808D0662808D0732808D0702802D0EF
:100C500013E02C700CE02C700DE02C700DE00520E2
:100C600018700AE040696C2802D0722803D004E0B2
:100C700083F800A001E083F80090521CB242B9DD75
:100C8000BDE8F08704040020280000208800002030
:100C9000860000203E00002010B500F00DF8B0F5F1
:100CA000967F01D2022010BD40F2DC51884201D271
:100CB000012010BD002010BD2DE9F0411F4D204C3A
:100CC000204FDFF884802868002628B33888502811
:100CD0001DD21E48D0F81802D0B1206820F4405030
:100CE0002060206840F4805020600221E82001F05C
:100CF00093FF4FF6FF7101EA0020A8F80000444678
:100D00000321E82001F088FF2188084420802E601C
:100D1000B8F80000BDE8F081B4220221E82001F01B
:100D20009DFF012003F068FA01202860206820F46C
:100D300040502060206820603E80E9E744000020A9
:100D4000000402402E0000204000002000804042AD
:100D50007047000078B50024009490F83C20012AE8
:100D600019D0012280F83C200A6807230568092A67
:100D700013D9EE680A3A02EB420293409E43EE60BA
:100D80000B788A680A3B03EB43039A400368DD68EB
:100D90002A43DA6010E0022078BD2E6902EB42029D
:100DA00093409E432E610A788B6802EB4202934087
:100DB000026815692B4313614A681F23072A13D25F
:100DC00005686E6B521E02EB820293409E436E6377
:100DD0000A8893B20A79521E02EB8202934002689B
:100DE000556B2B43536327E005680D2A12D22E6BF7
:100DF000D21F02EB820293409E432E630B790A8836
:100E0000DB1F92B203EB83039A4003681D6B2A43F6
:100E10001A6311E0EE6A0D3A02EB820293409E43A0
:100E2000EE620B790A880D3B92B203EB83039A4082
:100E30000368DD6A2A43DA62174A0368934208D1DD
:100E40000B68122B05D1D2F8043343F48003C2F8A7
:100E50000433036893421BD1104B0D689D4201D0AF
:100E6000112D15D1D2F8045345F40005C2F80453EE
:100E7000096899420CD10A490A4A0968B1FBF2F1A2
:100E800001EB8101490000E0491E00910029FBD1DE
:100E900080F83C40002078BD002001401200001086
:100EA0000000002040420F0070477047704770B547
:100EB0000446006801684268C1F34001C2F3401271
:100EC00051B34AB3216CC90603D4216C41F40071BB
:100ED0002164816811F0405F17D1A169A9B9C16A85
:100EE00011F4700F02D0816849050ED4416821F0D9
:100EF00020014160206C20F480702064206CC004CC
:100F000003D4206C40F0010020642046FFF7CCFFA2
:100F100021686FF012000860206801684268C1F320
:100F20008001C2F3C01289B382B3216CC90603D415
:100F3000216C41F400512164816811F4401F1ED1DD
:100F4000816B11F4401F02D08168490517D44168B4
:100F5000490514D4816811F0405F10D1A16971B9BD
:100F6000416821F080014160206C20F480502064B1
:100F7000206CC00503D4206C40F0010020642046A2
:100F8000FFF7E6FE21686FF00C000860206801683A
:100F9000426811F0010FC2F380120ED06AB10068EE
:100FA000C0070AD0206C40F480302064204600F056
:100FB00046F821686FF00100086020680168426807
:100FC000C1F34011C2F3806200290DD0002A0BD07A
:100FD000616C41F0020161646FF0200505602046FC
:100FE000FFF764FF2068056070BD70B504004FF026
:100FF000000503D0206C002610B107E0012070BD71
:10100000666484F83C60204600F01AF8206CC00644
:1010100010D4206C20F4885040F002002064204658
:10102000FFF77EF96664206C20F0020040F00100BA
:10103000206400E0012584F83C60284670BD7047BC
:1010400070B506460068184986B088422AD117480C
:101050000025016841F4807101600068694600F470
:1010600080700590012000900320CDE90105104813
:1010700000F02CFA104C0F48C4E900050015A560DB
:10108000C4E90350400060618000C4E90605000126
:10109000C4E90805204600F075F908B1FFF748FDDE
:1010A000B463A66306B070BD00200140443802401E
:1010B000000802401064024048060020F8B50D46C2
:1010C00000210446009190F83C00012807D001203F
:1010D00084F83C0020688368DB0702D011E002201E
:1010E000F8BD836843F0010383602D482D4B0068F1
:1010F000B0FBF3F000EB400000E0401E0090002841
:10110000FBD120688368DB0748D0236C40F201667E
:10111000B34343F4807323644068400505D5206CD5
:1011200020F4005040F480502064206CC00404D5AA
:10113000606C20F00600606400E0616484F83C109C
:10114000A16B1948C863A16B18480864A16B1848C3
:10115000C86421686FF0220008602068416841F08F
:10116000806141602068816841F4807181602168FC
:1011700013462A464C31A06B00F06CF90D49D1F8AA
:101180000403C006206801D0884207D1816811F0AD
:10119000405F03D1816841F0804181600020F8BD4B
:1011A0000000002040420F009102000809030008DF
:1011B000F30200080020014090F83510022903D006
:1011C0008021416501207047052180F835100068B5
:1011D000016821F001010160002070472DE9F8430A
:1011E00004464FF00008CDF8008064484FF41651D3
:1011F000A56D0068B0FBF1F72E6894F85C1008202C
:1012000000FA01F131420FD021680A6852070BD56C
:101210000A6822F004020A6094F85C108840A86012
:10122000606D40F00100606594F85C10544888409F
:10123000304208D021684969090604D5A860606D6C
:1012400040F0020060654E4894F85C10C01C884075
:10125000304208D021680968890704D5A860606D0C
:1012600040F00400606594F85C1010208840304223
:1012700018D021680968090714D5A860206801689A
:10128000490304D50068000308D5A16C07E0016894
:10129000C90503D4016821F008010160216C09B17E
:1012A0002046884794F85C102020884030424FF058
:1012B000010631D021680968C9062DD5A86094F8C7
:1012C000350005282068016806D0490347D5006825
:1012D00000031DD4616C1CE021F016010160206840
:1012E000416921F080014161206C08B9A06C20B1F6
:1012F0002068016821F00801016094F85C103F202B
:101300008840A86084F8348084F83560216D1FE03F
:10131000E16B09B120468847606D00282BD0606DD5
:10132000C00714D0052084F835002068016821F03A
:10133000010101600098401C0090B84203D8206869
:101340000068C007F6D184F8348084F83560E16C19
:10135000002910D001B02046BDE8F04308470168DD
:10136000C905D5D4016821F01001016084F83480EA
:1013700084F83560CCE7BDE8F88300000000002069
:10138000010080002DE9F041044600F08FF9064687
:101390005CB1002584F83450022084F835002068C0
:1013A000016821F0010101600DE00120BDE8F0813C
:1013B00000F07CF9801B052805D9202060650320FA
:1013C00084F83500F2E720680068C007F0D1226891
:1013D00011681F480140D4E901031843D4E90336DA
:1013E0003343184363691843A3691843E3691843F7
:1013F000236A18430843616A042903D1D4E90B1313
:1014000019430843106020684069666A20F00701AC
:1014100030460E43012704280AD1A06A064320461D
:10142000FFF726FB20B14020606584F83570BCE7EB
:10143000206846612046FFF707FB94F85C203F21B7
:1014400091408160656584F835700020AEE700004A
:101450003F8010F02DE9F0410446866D90F834008D
:10146000002501280DD0012084F8340094F835704F
:101470000020012F07D084F8340002252846BDE85B
:10148000F0810220FBE7022784F835706065204672
:10149000FFF718FB94F85C103F208840B06020688C
:1014A000016841F0160101602068416941F0800146
:1014B0004161206C20B12068016841F008010160A1
:1014C0002068016841F001010160D7E72DE9F84F7C
:1014D000DFF890B100224FF001084FF0030A4FF0FF
:1014E0000F090BF1040E00BF0B6808FA02F4234049
:1014F000A3426ED14D68022D01D0122D0ED1D50818
:1015000000EB850CDCF820505607F70E09FA07F6B9
:10151000B5430E69BE402E43CCF8206006685500E6
:101520000F790AFA05FC07F0030726EA0C06AF401C
:10153000374307604E68012E05D0022E03D0112ECE
:1015400001D0122E0ED18768CE6827EA0C07AE4074
:101550003E4386604668A6430C79C4F30014944069
:1015600034434460C4688E6824EA0C04AE402643C9
:10157000C6604C68E4006FD53B4C256845F4804557
:101580002560246822F0030504F480440094374C5D
:101590002E19D6F8084895072F0F09FA07F5AC431E
:1015A000334DA84201D100252EE0324DA84201D191
:1015B000012529E0304DA84201D1022524E02F4D1C
:1015C000A84201D103251FE02D4DA84202D10425D8
:1015D0001AE041E02B4DA84201D1052514E02A4D27
:1015E000A84201D106250FE0284DA84201D10725C8
:1015F0000AE0274DA84201D1082505E0254DA84263
:1016000001D1092500E00A25BD402543C6F8085848
:10161000DBF800405D464E689C43F60300D51C4352
:101620002C60DEF8004075464E689C43B60300D53A
:101630001C432C600B4D08352C684E689C43F60209
:1016400000D51C432C60074D0C352C684E689C431C
:10165000B60200D51C432C60521C102AFFF444AF84
:10166000BDE8F88F003C01404438024000300140A2
:10167000000002400004024000080240000C02404A
:10168000001002400014024000180240001C0240FA
:1016900000200240002402400069084000D00120E0
:1016A00070470AB1816170470904FBE7014800688F
:1016B000704700002000002002480168491C0160BA
:1016C00070470000200000200B4810B5016841F46D
:1016D00000710160016841F480610160016841F4BA
:1016E00080710160032000F075F8002000F006F81A
:1016F00000F018F8002010BD003C024010B5044670
:1017000007484FF47A710068B0FBF1F000F065FB18
:1017100000222146501E00F03DF8002010BD0000C0
:101720000000002010B5032000F054F800221146FC
:101730006FF00B0000F02EF8002211466FF00A0047
:1017400000F028F8002211466FF0090000F022F89E
:1017500000221146501F00F01DF800221146101FF4
:1017600000F018F800221146901E00F013F8002235
:10177000BDE810401146501E00F00CB800F01F02EA
:10178000012191404009800000F1E020C0F80011E3
:1017900070470000F0B40E4B1B680C46C3F30223E5
:1017A000C3F10705042D00D90425191D072901D20D
:1017B000002300E0DB1E012606FA05F1491E214048
:1017C00099409E40761E16403143F0BC01F0BFBEEA
:1017D0000CED00E0064900F0070208684FF6FF0331
:1017E000184040EA0220034A104308607047000096
:1017F0000CED00E00000FA052DE9F8431E480168F1
:1018000041F0805101600068012600F08050009096
:10181000300490FAA0F0194FB0FA80F047F8206039
:10182000FFF744FF05464FF47A78154C05E000BFFA
:10183000FFF73CFF401B404515D86068C003F7D553
:101840004FF4003090FAA0F0B0FA80F047F8206032
:10185000FFF72CFF0546464608E000BFFFF726FFCE
:10186000401BB04202D90320BDE8F88360688003C2
:10187000F4D50020F8E700004038024000000E4296
:10188000007000402DE9F047DFF8649105460F46EF
:10189000D9F8000000F00F01F8B28046B94208D232
:1018A000014689F80010D9F8000000F00F00B84296
:1018B00074D128784F4C800705D52068A96820F09E
:1018C000F000084320602878C00759D0494968686B
:1018D000083901281AD002281BD0032819D009681A
:1018E000890700295ADA216821F0030101432160A8
:1018F000FFF7DCFE6968064641F28830012911D005
:1019000002291DD00329824627D035E009688903C2
:10191000E7E709688901E4E7FFF7C8FE811B514545
:1019200001D926E082462068C0F381000128F3D166
:1019300026E000BFFFF7BAFE811B514501D918E030
:1019400082462068C0F381000228F3D118E000BF6E
:10195000FFF7ACFE811B51450BD82068C0F3810016
:101960000328F5D10CE000BFFFF7A0FE811B514515
:1019700002D90320BDE8F087206810F00C0FF3D1E6
:10198000D9F80010484601F00F01B94208D980F893
:101990000080006800F00F00B84201D00120E9E7A4
:1019A0002878400705D52068E96820F4E05008430E
:1019B00020602878000706D52068296920F4604057
:1019C00040EAC100206000F051F82168F02292FA4C
:1019D000A2F201F0F001B2FA82F2D140064A515C63
:1019E000C840064908600020FFF788FE0020C1E7D4
:1019F000003C0240083802406C440008000000200F
:101A000001480068704700000000002008480949AC
:101A1000006809684FF4E05292FAA2F201F4E05132
:101A2000B2FA82F2D140044A515CC84070470000CB
:101A300000000020083802406C44000808480949AA
:101A4000006809684FF4604292FAA2F201F4604122
:101A5000B2FA82F2D140044A515CC840704700009B
:101A600000000020083802406C44000830B51948D6
:101A7000006810F00C01184812D0441004290ED050
:101A800008290DD11349091F0A6802F03F030A68AB
:101A9000550247F6C07204D5B4FBF3F003E02046CC
:101AA00030BDB0FBF3F00B680968134092FAA2F264
:101AB000B2FA82F2D34058434FF4403292FAA2F283
:101AC00001F44031B2FA82F2D140491C4900B0FB26
:101AD000F1F030BD083802400024F4002DE9F84F41
:101AE0000446DFF8CC820078A8F1040BC007ABF104
:101AF000040537D0D8F800104046C1F38101012910
:101B000008D00068C0F3810002280AD1DBF8000089
:101B1000400206D52868800324D56068002878D064
:101B200020E0A3492079891F0870606868B1FFF739
:101B3000BDFD064605E000BFFFF7B8FD801B642829
:101B400068D828688003F7D50CE0FFF7AFFD06469C
:101B500005E000BFFFF7AAFD801B6428F0D82868C5
:101B60008003F7D42078934E80074FF0010A4FF09E
:101B7000000742D5D8F80010404611F00C0F08D0ED
:101B80000068C0F3810002280AD1DBF8000040029F
:101B900006D42868800714D5E068012839D110E000
:101BA000E068D8B1C6F800A0FFF780FD814605E0E7
:101BB000FFF77CFDA0EB09000228C1D82868800748
:101BC000F6D52868F82292FAA2F22169B2FA82F2D6
:101BD00020F0F8009140084328600EE03760FFF7DE
:101BE00065FD814606E000BFFFF760FDA0EB090040
:101BF00002280FD828688007F6D42078000728D557
:101C00006D486169A1B1C0F800A0FFF74FFD8146A2
:101C100008E0CAE079E000BFFFF748FDA0EB09004B
:101C2000022872D862486C3000688007F4D510E052
:101C30000760FFF73BFD814606E000BFFFF736FD7A
:101C4000A0EB0900022860D859486C300068800772
:101C5000F4D42078400749D555483830016841F020
:101C600080510160006800F0805000905348016886
:101C700041F480710160FFF719FD814606E000BF65
:101C8000FFF714FDA0EB090002283ED84B4800687E
:101C9000C005F5D5DFF81891207A09F1680989F8AF
:101CA0000000A06888B1FFF701FD009008E000BFC8
:101CB000FFF7FCFC0099411A41F2883081426CD850
:101CC000D9F800008007F3D510E0FFF7EFFC009093
:101CD00008E000BFFFF7EAFC0099411A41F28830A2
:101CE00081425AD8D9F800008007F3D4A069E0B344
:101CF000D8F80010C1F38101022956D002283766B6
:101D000004D0FFF7D3FC04464AE046E0FFF7CEFCE0
:101D1000074604E0FFF7CAFCC01B02283DD828682C
:101D20008001F7D4D4E90701084347F6C07292FA5C
:101D3000A2F2616AB2FA82F29140A26A4FF0FF33D6
:101D400003EB52024FF4403393FAA3F3B3FA83F355
:101D50009A40114308434FF0706292FAA2F2E16A8E
:101D6000B2FA82F29140084300E01CE0CBF8000098
:101D7000C6F860A0FFF79AFC044604E0FFF796FC63
:101D8000001B022809D828688001F7D50BE000BFA6
:101D9000FFF78CFC001B022802D90320BDE8F88F56
:101DA00028688001F4D40020F8E70120F6E700005D
:101DB0000838024000004742800E47420070004051
:101DC0004FF0E0210428086903D020F004000861E6
:101DD000704740F00400FAE7704710B5401EB0F1BC
:101DE000807F01D3012010BD4FF0E02460610F21FE
:101DF000601701F0ACFB0020A061072020610020EB
:101E000010BD10B5FFF7E8FF10BD7047704730B543
:101E100090F83820012A20D0012280F838200223AF
:101E200080F8393003685C6824F070045C600368F3
:101E30005C680D682C435C6003689C6824F0800437
:101E40009C6003689C6849680C439C6080F839205A
:101E5000002180F83810084630BD022030BD10B592
:101E6000040003D094F8390010B107E0012010BD40
:101E7000002084F83800204600F00CF8022084F896
:101E80003900211D206801F095FC012084F83900FB
:101E9000002010BD08B5124A01681248914207D1CE
:101EA000016841F002010160006800F0020009E0F1
:101EB0000D4A914208D1016841F08001016000683B
:101EC00000F08000009008BD084A9142FBD10168F3
:101ED00041F480710160006800F48070F2E7000056
:101EE0000004004040380240001C00400020004038
:101EF0000168CA6842F00102CA600068016841F0E6
:101F0000010101600020704770B5044690F8380068
:101F1000012817D0012584F83850022084F83900B0
:101F20002068826822F0770222F47F42826008688B
:101F3000502837D00DDC202859D005DC88B3102874
:101F400041D151E0022070BD302853D040283AD111
:101F50003FE060282ED070280BD0B0F5805F03D012
:101F6000B0F5005F2FD110E02068816821F00701F3
:101F700015E0CB68D1E90121206801F086FC2168D9
:101F8000886840F0770088601DE0CB68D1E90121C6
:101F9000206801F07AFC2068816841F4804181600A
:101FA00011E01EE0CA684968206801F037FD502141
:101FB000206806E0CA684968206801F040FD602199
:101FC000206801F06CFC84F83950002084F8380057
:101FD00070BDCA684968206801F020FD4021206872
:101FE000EFE700212068ECE710212068E9E72021D5
:101FF0002068E6E730212068E3E7704770B50446C3
:10200000006801694FF00005C943890715D4C1680C
:10201000C943890711D4E91E016101202076206897
:1020200080698007204602D0FFF7E7FF04E000F058
:10203000B9F8204600F03BF9257620680169C943CC
:10204000490717D4C168C943490713D46FF0040185
:102050000161022020762068806910F4407F2046CC
:1020600002D0FFF7CAFF04E000F09CF8204600F021
:102070001EF9257620680169C943090716D4C1688D
:10208000C943090712D46FF00801016104202076CA
:102090002068C0698007204602D0FFF7AEFF04E049
:1020A00000F080F8204600F002F9257620680169EA
:1020B000C943C90617D4C168C943C90613D46FF010
:1020C00010010161082020762068C06910F4407F6B
:1020D000204602D0FFF791FF04E000F063F82046AD
:1020E00000F0E5F8257620680169C943C90708D1E1
:1020F000C168C943C90704D1891E0161204600F0A7
:10210000F3F820680169C943090609D4C168C943C5
:10211000090605D46FF0800101612046FFF775FEC6
:1021200020680169C943490609D4C168C943490601
:1021300005D46FF040010161204600F0E1F820680D
:102140000169C94389060BD4C168C943890607D40C
:102150006FF0200101612046BDE87040FFF756BED8
:1021600070BD000030B50C4D036800210224092227
:102170000A4885B0AB4201D1831503E0084DAB425C
:1021800008D15B150093CDE90141CDE90312694601
:10219000FFF79CF905B030BD001C00400014024060
:1021A00000200040704770B5044690F838000D4696
:1021B00001280DD0012684F83860022084F8390007
:1021C00042B1042A18D0082A2AD00C2A4DD139E06D
:1021D000022070BD206801F06BFB2068816941F02E
:1021E000080181612068816921F004018161206812
:1021F00081692A69114311E0206801F085FB20689C
:10220000816941F4006181612068816921F4806104
:102210008161206881692A6941EA0221816124E0A3
:10222000206801F0A3FB2068C16941F00801C16189
:102230002068C16921F00401C1612068C1692A696F
:10224000114311E0206801F0C1FB2068C16941F42D
:102250000061C1612068C16921F48061C1612068A9
:10226000C1692A6941EA0221C16184F8396000200C
:1022700084F8380070BD10B5040003D094F839001C
:1022800010B107E0012010BD002084F8380020467E
:1022900000F00CF8022084F83900211D206801F0BC
:1022A00089FA012084F83900002010BD704770477A
:1022B00010B504460068012201F0DCFA08492068E4
:1022C000884202D00749884203D1416C41F4004161
:1022D00041642068016841F001010160002010BDE7
:1022E00000000140000401400349884203D1034932
:1022F0000888401C08807047C40500202E0000207C
:102300007047704710F8391F407808437047000045
:1023100070B5026804461068D168536910F00F0F59
:1023200051D003F0010501F4907635435DD0C2072A
:1023300005D0CA0503D5E26B42F00102E263420711
:1023400005D5DA0703D0E26B42F00202E2638207AE
:1023500005D5DA0703D0E26B42F00402E26302071C
:1023600005D5DA0703D0E26B42F00802E263E26BC4
:10237000002A34D0800604D5880602D5204601F014
:1023800086FB20684069E16BC0F3801001F0080112
:102390000143204624D001F06CFB206841694906C6
:1023A0001AD5416921F040014161606BA0B11B4920
:1023B0000165606BFEF700FF002810D0606B016DB7
:1023C000BDE87040084783060FD58B060DD5204623
:1023D000BDE8704001F05BBB2046FFF792FF70BD87
:1023E000FFF78FFF0020E06370BD030606D50B06E4
:1023F00004D52046BDE8704001F0E6BC4006F3D5A8
:102400004806F1D5D168204621F04001D160202155
:1024100084F8391000F095F970BD0000633A0008A7
:1024200070B5040004D094F83900002510B106E01E
:10243000012070BD84F83850204600F023F8242095
:1024400084F839002068C16821F40051C160204639
:1024500001F064FB2068016921F49041016120686A
:10246000416921F02A0141612068C16841F40051AD
:10247000C160E563202084F8390084F83A00002028
:1024800070BD000070B524490268022401250726AA
:10249000224886B08A420BD121490A6842F01002D4
:1024A0000A60096801F0100105914FF4C0610DE068
:1024B0001B491C4B091F9A4212D10A6842F4003290
:1024C0000A60096801F4003105910C218DE83200A1
:1024D0004FEA0D01CDE90346FEF7F8FF06B070BDE7
:1024E00011488242FAD1086840F4802008600868E8
:1024F000694600F48020059010158DE83100CDE983
:1025000003460A48FEF7E2FF4FF400708DE8310001
:1025100069460748DEE70000001001400000024065
:10252000443802400044004000480040000402409B
:10253000000C024090F83A30202B1DD1D1B1CAB125
:1025400090F83830012B17D081628285C285002136
:10255000C163222280F83A2080F8381001684A6965
:1025600042F001024A610068C16841F49071C160A3
:1025700000207047012070470220704770B5304B33
:102580000268012100209A4219D12E4A2E4C13785C
:102590002E4A2A2B0AD0232B0BD0118801290AD1CD
:1025A0002B492C4E0C88C4F30D053EE01180208091
:1025B000F6E71080218070BD1080088070BD264B2A
:1025C0009A421FD1254A264D264B1478264AAA2C1A
:1025D00011D0552C13D019880129EFD11188234E21
:1025E000C1F30D05491C89B274551180C729E5D97D
:1025F0001880108070BD198028801080EEE7188048
:10260000298070BD1A4B9A42FBD11A4A1A4C137892
:102610001A4A2A2B10D0232BCBD011880129F0D1B4
:102620001749184E0C88C4F30D05641C7355A3B2EA
:102630000B80C72BC0D870BD11802080F0E7000050
:10264000001001408C0000203600002034000020E3
:10265000240000206C010020004400408D00002078
:102660003A0000203800002026000020040400204A
:10267000004800408E0000202C0000203C0000207C
:102680002A000020FC0200202DE9F843044690F8BF
:1026900039001E4617460D46202850D135B32FB3BA
:1026A00094F8380001284AD0012084F838004FF00F
:1026B0000008C4F83C80212084F83900FEF7F6FFBA
:1026C000A784E78481464FF48057E08C4B46401E38
:1026D000E084A0684FF00002B8424FF0800120462D
:1026E000009611D101F0A1FB00BB02E00120BDE882
:1026F000F8832888C0F3080120684160206908B188
:102700006D1C08E0AD1C06E001F08FFB70B921687C
:1027100015F8010B4860E08C0028D6D14B4600220A
:1027200040212046009601F080FB08B10320DEE73F
:10273000202084F8390084F838800020D7E7022070
:10274000D5E77047FEE7000070B50D4C0025C4F8D2
:10275000A0520C48016821F440210160016841F455
:1027600080210160C4F8A452022004F5287401F00D
:1027700051FD01202060022001F04CFD256070BD5C
:10278000008043420004024070B50D4C0025C4F89F
:1027900098520C48016821F440410160016841F4FD
:1027A00080410160C4F89C520A2004F5267401F0AF
:1027B00031FD012020600A2001F02CFD256070BD54
:1027C00000804042000402400E4810B5016886B007
:1027D00041F0020101600068012400F00200059050
:1027E0004FF44070CDE900040220CDE90240694673
:1027F0000548FEF76BFE0548C0F8A442C0F8A042A9
:1028000006B010BD30380240000402400080434250
:102810000E4810B5016886B041F002010160006801
:10282000012400F002000590C020CDE90004022040
:10283000CDE9024069460648FEF748FE0548C0F863
:102840009C42C0F8984206B010BD000030380240EB
:10285000000402400080404270B50D4C0025C4F8D1
:10286000A0520C48016821F440210160016841F444
:10287000802101600126C4F8A462022004F52874B6
:1028800001F0C8FC2660022001F0C4FC256070BD88
:10289000008043420004024070B50D4C0025C4F88E
:1028A00098520C48016821F440410160016841F4EC
:1028B000804101600126C4F89C620A2004F5267458
:1028C00001F0A8FC26600A2001F0A4FC256070BD80
:1028D00000804042000402402DE9F047814616483E
:1028E0000024016821F44021016001680160134E59
:1028F000254627464FF00108C6F8A072022001F0D5
:1029000089FCC6F8A0826006040ED6F8240208B13D
:10291000641CE4B2012001F07DFC6D1CEDB2082DB9
:10292000EAD3B9F1000F04D0FFF70EFF2046BDE84F
:10293000F087FFF791FFF9E700040240008043426F
:102940002DE9F047814616480024016821F44041F2
:10295000016001680160134E254627464FF00108CB
:10296000C6F898720A2001F055FCC6F898826006F5
:10297000040ED6F81C0208B1641CE4B2052001F074
:1029800049FC6D1CEDB2082DEAD3B9F1000F04D05B
:10299000FFF7FAFE2046BDE8F087FFF77DFFF9E775
:1029A00000040240008040422DE9F04106461448F0
:1029B000016821F440210160016841F48021016037
:1029C000104C0027C4F8A0723D464FF00108F009F2
:1029D000C4F8A4027006060E022001F01BFCC4F825
:1029E000A082022001F016FCC4F8A072022001F0BF
:1029F00011FC6D1CEDB2082DE9D3BDE8F08100009B
:102A000000040240008043422DE9F041064615488B
:102A1000016821F440410160016841F48041016096
:102A2000114C0020C4F89802054680460127F009A1
:102A3000C4F89C027006060E0A2001F0EBFBC4F8F5
:102A400098720A2001F0E6FBC4F898820A2001F08F
:102A5000E1FB6D1CEDB2082DE9D3C4F89C72BDE812
:102A6000F0810000000402400080404270B50D4833
:102A7000016821F440210160016841F48021016076
:102A8000094C0120C4F8A402C4F8A002042004F5F3
:102A9000287401F0BFFB00256560042001F0BAFB3B
:102AA000256070BD000402400080434270B50D48AF
:102AB000016821F440410160016841F480410160F6
:102AC000094C0120C4F89C02C4F898020A2004F5BD
:102AD000267401F09FFB002565600A2001F09AFB37
:102AE000256070BD00040240008040420E4810B5D1
:102AF000016821F440210160016841F480210160F6
:102B00000A4C0020C4F8A002C4F8A402042004F572
:102B1000287401F07FFB012020606060BDE8104058
:102B2000042001F077BB0000000402400080434213
:102B300070B50D48016821F440410160016841F41D
:102B400080410160094C0125C4F898520026C4F860
:102B50009C620A2004F5267401F05CFB65600A2083
:102B600001F058FB266070BD000402400080404226
:102B700070B512480024016821F440210160016809
:102B800001600F4D0126C5F8A462304601F042FBFA
:102B9000C5F8A062012001F03DFB07E0641CE4B22F
:102BA000FA2C03D9FFF7A2FF012070BDD5F824024B
:102BB0000028F3D1C5F8A00270BD00000004024057
:102BC0000080434270B512480024016821F440415E
:102BD0000160016801600F4D0126C5F89C62062066
:102BE00001F018FBC5F89862062001F013FB07E01E
:102BF000641CE4B2FA2C03D9FFF79AFF012070BDE0
:102C0000D5F81C020028F3D1C5F8980270BD000069
:102C1000000402400080404270B50D460446FFF7B4
:102C200045FF2046FFF7F0FEFFF7CCFF2846FFF7F1
:102C3000EBFEFFF7C7FFFFF739FF641CE0B2FFF7B9
:102C4000E3FEFFF7BFFFC82001F0E4FA0020FFF722
:102C500077FE0446FFF76CFF204670BD70B5154641
:102C60000E460446FFF722FF2046FFF7CDFE00BFC9
:102C7000FFF7A8FF0028FBD13046FFF7C5FEFFF79E
:102C8000A1FF2846FFF7C0FEFFF79CFFBDE870409C
:102C9000FFF74EBF2DE9F0474FF400581D4E0C468C
:102CA00005460022474641463046FEF7FAFC04F04E
:102CB000F000000404F00F0100EB01342C4301226A
:102CC00039463046FEF7EDFC00254FF480494FF4BD
:102CD0000047002C01DA012200E00022494630467C
:102CE000FEF7DFFC012239463046FEF7DAFC02200F
:102CF00001F082FA002239463046FEF7D2FC640029
:102D00006D1C182DE5D341463046BDE8F047002242
:102D1000FEF7C7BC001C024070B500224FF4005102
:102D20001E48FEF7BEFC1E4D4FF480740022214663
:102D30002846FEF7B6FC642001F05EFA0122214627
:102D40002846FEF7AEFC282001F056FA4FF07844F2
:102D500014212046FFF79EFF282001F04DFA302174
:102D60002046FFF797FF282001F046FA0C21204665
:102D7000FFF790FF282001F03FFA01212046FFF7DE
:102D800089FF282001F038FA06212046FFF782FF4C
:102D9000BDE87040282001F02FBA0000001C02405E
:102DA000002002407FB512481049002501604FF411
:102DB0008031C0E90115056105620124C5628461A5
:102DC000C4610463C5604461FEF70FF908B1FDF703
:102DD000AFFE0A208DE8310069460548FDF7BAFFCD
:102DE000002801D0FDF7A4FE7FBD000000200140B7
:102DF00000060020054808B5016841F48001016023
:102E0000006800F48000009008BD000030380240E7
:102E10002DE9F04F744887B00026016841F0200189
:102E20000160016801F020010591016841F0800115
:102E30000160016801F080010591016841F0010124
:102E40000160016801F001010591016841F0020192
:102E50000160016801F002010591016841F004017F
:102E60000160016801F004010591016841F0080169
:102E70000160016801F008010591016841F010014D
:102E80000160016801F010010591016841F0400105
:102E90000160016801F040010591016841F4807111
:102EA00001600068012400F4807005905020CDE995
:102EB0000004032569464D48CDE90245FEF706FBAF
:102EC0007C20CDE9000669464948CDE90245FEF778
:102ED000FDFA0C20CDE90006DFF818B16946584626
:102EE000CDE90245FEF7F2FA6703CDE900746946C1
:102EF0004148CDE90245FEF7E9FAA803CDE900060D
:102F000069463D48CDE90245FEF7E0FA4FF46040DE
:102F1000CDE9000469463948CDE90245FEF7D6FA05
:102F20002002CDE9000469463548CDE90245FEF7A7
:102F3000CDFA4FF4A050CDE9000469465846CDE9DA
:102F40000245FEF7C3FAE603CDE90064DFF8B4906A
:102F500069464846CDE90245FEF7B8FA4020CDE97A
:102F60000004DFF8A4A069465046CDE90245FEF70B
:102F7000ADFA4FF40078CDE9008469461B48CDE9ED
:102F80000245FEF7A3FA012210215846FEF789FBFD
:102F9000012210211548FEF784FB0122402113482D
:102FA000FEF77FFB012231464846FEF77AFB0122FD
:102FB00091025846FEF775FB012211035846FEF7B1
:102FC00070FB002239460C48FEF76BFB01224021C2
:102FD0005046FEF766FB012241460448FEF761FBBE
:102FE00007B0BDE8F08F0000303802400008024012
:102FF000001002400018024000000240001C024085
:103000000020024000040240000C024010B50022E3
:1030100001211220FEF7BEFB1220FEF7AFFB0022BB
:1030200004212620FEF7B6FB2620FEF7A7FB002290
:1030300005212720FEF7AEFB2720FEF79FFB00228D
:1030400002213820FEF7A6FB3820FEF797FB00226E
:1030500006211D20FEF79EFB1D20FEF78FFB0B486F
:10306000FEF746FF00210A48FFF722F90021084831
:10307000FFF71EF9642207490748FEF71FF80028EA
:1030800003D0BDE81040FDF753BD10BDC4050020BE
:1030900088050020A80600200006002010B515486D
:1030A00088B01349016059210024C0E9011440F29D
:1030B000F311C0E90314FEF7D2FE08B1FDF738FDA5
:1030C0000C48FFF7D8F808B1FDF732FD6020CDE9D4
:1030D000000402940022694606480494FFF763F84E
:1030E00008B1FDF725FD0348FFF73CF808B010BD17
:1030F000001C00404C05002010B5154888B013494D
:10310000016059210024C0E9011440F2F311C0E923
:103110000314FEF7A4FE08B1FDF70AFD0C48FFF703
:10312000AAF808B1FDF704FD6020CDE9000402947F
:103130000022694606480494FFF735F808B1FDF708
:10314000F7FC0348FFF70EF808B010BD0020004060
:103150008805002010B5154886B01349016042F279
:1031600027310024C0E9011440F2E731C0E903141B
:10317000FEF775FE08B1FDF7DBFC4FF480500090C0
:1031800069460A48FEF7C0FE08B1FDF7D1FC049479
:1031900004A906480594FEF73AFE002801D0FDF781
:1031A000C7FC06B010BD000000040040C4050020AC
:1031B0000E4810B50C4901604FF461414160002197
:1031C00081600C22C160C0E904128161C161FFF716
:1031D00027F908B1FDF7ACFCBDE810400122044915
:1031E0000248FFF7A7B90000004400400C0500208A
:1031F0008D0000200E4810B50C4901604FF4E131FC
:103200004160002181600C22C160C0E9041281612B
:10321000C161FFF705F908B1FDF78AFCBDE8104070
:10322000012204490248FFF785B900000048004028
:10323000C40300208E000020FEE700002DE9F041CD
:10324000294C04250326207841F664134FF4E677D1
:10325000072814D2DFE800F01B1E1315042A0F0004
:10326000224D002210212846FEF71BFA00224021A1
:103270002846FEF716FAC82000F09CF92670BDE833
:10328000F08100F033FFBDE8F041FDF753BC96211B
:10329000002001E00021962000F0A4F9184600F07B
:1032A000ABFF3846394600F09DF91BE0C8210846BF
:1032B00000F098F9C82000F0A1F900F09DFE00F0A0
:1032C000F7FF4FF47A763346042209490948FFF79D
:1032D000DBF93346032208490648FFF7D5F90749C9
:1032E000082008702570CAE7860000200008024008
:1032F0005D000020C4030020690000202800002099
:1033000070B5234C207803281DD00325042808D04D
:1033100005281ED0062803D1C82000F04BF92570DF
:1033200070BD1C4E002210213046FEF7BAF9002273
:1033300040213046FEF7B5F9C82000F03BF916A051
:1033400000F0ACFEEBE700F0D1FEBDE87040FDF709
:10335000F1BBC821084600F045F9C82000F04EF93D
:1033600000F04AFE00F0A4FF4FF47A752B460422C9
:103370000A490B48FFF788F92B46032209490848F8
:10338000FFF782F90849082008700420207070BDFA
:103390008600002000080240620000005D0000205E
:1033A000C40300206C000020280000202DE9F0411B
:1033B000294C04250326207841F664134FF4E67760
:1033C000072814D2DFE800F01B1E1315042A0F0093
:1033D000224D012210212846FEF763F901224021E7
:1033E0002846FEF75EF9C82000F0E4F82670BDE834
:1033F000F081FDF79FFBBDE8F04100F0B1BE9621E2
:10340000002001E00021962000F0ECF8184600F0C2
:10341000F3FE3846394600F0E5F81BE0C8210846BF
:1034200000F0E0F8C82000F0E9F800F0E5FD00F059
:103430003FFF4FF47A763346042209490948FFF7E3
:1034400023F93346032208490648FFF71DF90749C7
:10345000082008702570CAE7860000200008024096
:103460005D000020C403002066000020280000202A
:103470002DE9F0412F4C0425032720782E4E41F6EC
:103480006413072814D2DFE800F01B1E2A15043746
:103490000F002A4D012210212846FEF702F90122D1
:1034A00040212846FEF7FDF8C82000F083F8277079
:1034B000BDE8F081FDF73EFBBDE8F04100F050BEF5
:1034C0009621002001E00021962000F08BF818469C
:1034D00000F092FE0021084600F084F827E0002169
:1034E000962000F07FF8184600F086FE002108467E
:1034F00000F078F835701AE0C821084600F072F83C
:10350000C82000F07BF800F077FD00F0D1FE4FF40A
:103510007A773B4604220A490A48FFF7B5F83B464A
:10352000032209490748FFF7AFF8082030702570DB
:10353000BEE70000860000202800002000080240AE
:103540005D000020C40300206C00002070470907C4
:10355000090E002806DA00F00F0000F1E02080F8E4
:10356000141D704700F1E02080F800147047704788
:103570007047000010B54FF47A74234604220949BD
:103580000948FFF781F82346032208490648FFF758
:103590007BF82346BDE81040012205490248FFF7A9
:1035A00073B8000059000020C40300206F00002001
:1035B000650000202DE9F04105464FF4E674074E02
:1035C000074F07E03068446338684463642000F0C4
:1035D00021FE641EAC42F5DCBDE8F08188050020C8
:1035E0004C050020034A1268506303480068416399
:1035F000704700004C050020880500202DE9F041AF
:103600000446084D084E4FF4E67707E02868446307
:1036100030684463642000F0FDFD641CBC42F5DBAF
:10362000BDE8F081880500204C05002010B5FFF7AB
:1036300073FB4FF4FA7000F0DFFD09A18320FDF762
:1036400056FA08A19220FDF752FA09A18920FDF748
:103650004EFABDE810400AA19820FDF748BA0000D4
:1036600041475600D6C7C4DCB2D6B4A20000000061
:10367000D7D4B6AFBBAFB9A4B3CCB2BF0000000083
:10368000B5E7D1B93A00000010B54FF4E670014635
:10369000FFF7A8FFBDE8104000F0AEBC10B5FEF784
:1036A0000BF8BDE81040FEF7ACBB000030B5274872
:1036B00093B00025016841F080510160006800F07E
:1036C000805011902248016841F440410160006837
:1036D000022400F4404011900120009001908005E8
:1036E000CDE90640082008904FF4B470CDE90904F4
:1036F00004200B906846FEF7F1F900B1FEE7FEF7F3
:103700007BF800B1FEE70CA90F2081E831004FF4EF
:10371000A0500F904FF48050109005210CA8FEF798
:10372000B1F800B1FEE7FEF76BF94FF47A71B0FB28
:10373000F1F0FEF752FB0420FEF742FB0022114697
:10374000501EFEF727F813B030BD0000403802408D
:10375000007000401048016841F4700101600F489A
:10376000016841F0010101600C4A0021083211603A
:1037700002680B4B1A400260031D0A4A1A60026875
:1037800022F48022026005480C300160024958068C
:10379000803908607047000088ED00E00038024082
:1037A000FFFFF6FE103000240148FEF727BC0000A2
:1037B000C4050020F0B50268234B244D244E254F4C
:1037C000254C4FF0804C984209D0604507D0A84264
:1037D00005D0B04203D0B84201D0A04204D122F0BB
:1037E000700E4A6842EA0E0298421BD0604519D01A
:1037F000A84217D0B04215D0B84213D0A04211D081
:10380000164DA8420ED0164DA8420BD0154DA84219
:1038100008D0154DA84205D0144DA84202D0144D31
:10382000A84203D122F44075CA682A4302608A681C
:10383000C2620A688262984201D0A04201D109693D
:10384000016301214161F0BD00000140000400401E
:1038500000080040000C004000040140004001400E
:10386000004401400048014000180040001C004096
:103870000020004010B50123046A8B409C43046281
:10388000036A8A401343036210BD10B5846842EA9C
:10389000032224F47F440A432243826010BD8268DD
:1038A00022F070020A4342F0070181607047000075
:1038B00030B5026A22F001020262026A436884693A
:1038C0000D6824F07304254322F002048A68224321
:1038D0000B4CA04202D00B4CA0420BD122F00804AA
:1038E000CA6823F4407322434C6922F004021C434B
:1038F0008B6923434360856149684163026230BD3F
:10390000000001400004014030B5026A22F01002BC
:103910000262026A436884690D6824F4E64444EA5A
:1039200005248D6822F0200242EA05120D4DA842BE
:1039300002D00D4DA8420ED1CD6822F0800242EA9D
:1039400005124D6923F4406343EA85038D6922F033
:10395000400243EA850343608461496881630262EF
:1039600030BD0000000001400004014030B5026A93
:1039700022F480720262036A4268C46923F400730D
:1039800024F073050C682C438D6843EA05230D4D24
:10399000A84202D00C4DA8420ED1CD6823F400639A
:1039A00043EA05234D6922F4405242EA05128D692B
:1039B00023F4806342EA05124260C4614968C1632E
:1039C000036230BD000001400004014030B5026ACE
:1039D00022F480520262046A4268C3690D6823F4CB
:1039E000E64343EA05238D6824F4005444EA053491
:1039F000084DA84202D0084DA84204D14D6922F4D6
:103A0000804242EA85124260C361496801640462EF
:103A100030BD0000000001400004014010B5036A01
:103A2000046A24F001040462846924F0F00444EA86
:103A3000021423F00A020A438461026210BD10B529
:103A4000036A23F0100303628369046A23F470435A
:103A500043EA023224F0A00343EA011182610162C9
:103A600010BD10B5806B0021C185C184FEF749FCF3
:103A700010BD0168CA6822F49072CA6001684A6980
:103A800022F001024A61202180F83A10704710B5F7
:103A900090F83A10222901D0022010BD8168B1F5BA
:103AA000805F11D00169002901681FD0496801F0C9
:103AB0007F03816A4A1C82620B70C18D491E090412
:103AC000090CC18518D026E00269816A002A0268C3
:103AD000526805D0D2B20A80816A491C8162ECE743
:103AE000C2F308020A80816A891CF7E74A68816A82
:103AF0004B1C83620A70E0E70168CA6822F4907286
:103B0000CA6001684A6922F001024A61202180F8F6
:103B10003A10FEF733FD002010BD00002DE9F04102
:103B200004460068016921F44052E16811430161D3
:103B30002168C86849F20C6290432369A268E5696C
:103B40001A4363692B431A430243CA6021684869D8
:103B500020F44072A06910434861E1696425B1F521
:103B6000004F9748974A21684FF032083FD0914262
:103B700001D081427CD1FDF761FF00EBC00101EB78
:103B8000001061688900B0FBF1F6FDF757FF00EB0C
:103B9000C00101EB001061688900B0FBF1F0B0FBDF
:103BA000F5F06FF01801484306EB800108EB0110B7
:103BB000B0FBF5F000F0F006FDF740FF00EBC001B0
:103BC00001EB001061688900B0FBF1F0B0FBF5F08B
:103BD00006EB0016FDF732FF00EBC00101EB001011
:103BE00061688900B0FBF1F7FDF728FFD2E0914250
:103BF00001D081423DD1FDF721FF00EBC00101EB77
:103C0000001061684900B0FBF1F0B0FBF5F006016F
:103C1000FDF714FF00EBC00101EB001061684900E3
:103C2000B0FBF1F7FDF70AFF00EBC00101EB00105C
:103C300061684900B0FBF1F0B0FBF5F06FF01801DE
:103C4000484307EB800108EBC100B0FBF5F000F042
:103C5000F80006EB4006FDF7F1FE00EBC00101EBBA
:103C6000001061684900B0FBF1F7FDF7E7FE3CE0AA
:103C700055E0FDF7CBFE00EBC00101EB00106168E1
:103C80004900B0FBF1F0B0FBF5F00601FDF7BEFE18
:103C900000EBC00101EB001061684900B0FBF1F7D7
:103CA000FDF7B4FE00EBC00101EB001061684900B4
:103CB000B0FBF1F0B0FBF5F06FF01801484307EBF3
:103CC000800108EBC100B0FBF5F000F0F80006EB56
:103CD0004006FDF79BFE00EBC00101EB00106168A0
:103CE0004900B0FBF1F7FDF791FE00EBC00101EBDD
:103CF000001061684900B0FBF1F0B0FBF5F06FF027
:103D00001801484307EB800108EBC100B0FBF5F058
:103D100000F00700216830448860BDE8F081FDF7BD
:103D200075FE00EBC00101EB001061688900B0FB7B
:103D3000F1F6FDF76BFE00EBC00101EB00106168CE
:103D40008900B0FBF1F0B0FBF5F06FF018014843CB
:103D500006EB800108EB0110B0FBF5F000F0F00677
:103D6000FDF754FE00EBC00101EB00106168890013
:103D7000B0FBF1F0B0FBF5F006EB0016FDF746FEE8
:103D800000EBC00101EB001061688900B0FBF1F7A6
:103D9000FDF73CFE00EBC00101EB001061688900FB
:103DA000B0FBF1F0B0FBF5F06FF01801484307EB02
:103DB000800108EB0110B0FBF5F000F00F00A9E75F
:103DC000001401400010014090F83910212901D061
:103DD000022070478168B1F5805F016A0BD04A1CF0
:103DE0000262026809785160C18C491E0904090CFD
:103DF000C1840ED017E009880268C1F30801516040
:103E000001690029016A02D0491C0162ECE7891CA2
:103E1000FBE70168CA6822F08002CA600068C168D6
:103E200041F04001C160002070472DE9F041984603
:103E300017460E460446069D1DE0681C1BD02DB19A
:103E4000FDF734FCA0EB0800A84214D92068C16833
:103E500021F4D071C1602068416921F00101416104
:103E6000202084F8390084F83A00002084F83800D3
:103E70000320BDE8F0812068006836EA000004D025
:103E80000020B842D9D00020F3E70120F9E7000074
:103E900010B50848FEF73CFA0648FEF733FA20282A
:103EA000FAD1012204490348FEF744FB0028F8D167
:103EB00010BD0000CC0400208C00002010B5084884
:103EC000FEF726FA0648FEF71DFA2028FAD101224D
:103ED00004490348FEF72EFB0028F8D110BD00006E
:103EE0000C0500208D00002010B50848FEF710FAE0
:103EF0000648FEF707FA2028FAD1012204490348B0
:103F0000FEF718FB0028F8D110BD0000C403002004
:103F10008E0000202DE9F041154D002628888000F4
:103F200000F06AFA134C206006E0182000F064FAF2
:103F3000216841F82600761C28888642F5DB00209F
:103F40000D4A10E0002100EB400300BF276801EBA1
:103F50004306164457F82070367A47F82160491C0A
:103F60000629F3DB401C29888842EBDBBDE8F081A1
:103F70003E000020880000203402002070B5174B5E
:103F800000201988012909D115494A78572A05D1F5
:103F90008A78412A02D1CA78592A01D0002070BDFE
:103FA000104D114A2C781470104A02E00E5C165421
:103FB000401CA042FADD0020188028809079D17939
:103FC000303800EB80006FF02F0202EB4000084415
:103FD00007490880FFF79EFF012070BD2C000020DC
:103FE000FC0200202A0000208F0000203402002064
:103FF0003E000020FEE700002DE9F04121A19820BD
:10400000FCF775FD062264212048FCF7FDF840F21C
:104010003E3148431E49800AC830086042F21071A0
:10402000B0FBF1F21B4C1C4E4FF07A472270B0FBF4
:10403000F1F201FB12014FF47A72B1FBF2F1B0FB25
:10404000F2F302FB13036422B3FBF2F361700A2163
:10405000A170E370B0FBF2F302FB1300B0FBF1F0D0
:1040600020710B2060710025605D315C3846FEF7E1
:1040700011FE032000F0C0F86D1C062DF4DBBDE836
:10408000F0810000B5E7D1B93A000000A806002091
:1040900048000020900000204C000020014A024906
:1040A00000F013B8494200089800002002E008C858
:1040B000121F08C1002AFAD170477047002001E0A2
:1040C00001C1121F002AFBD170472DE9F0411646AD
:1040D0000F460446002503E03946B047641C6D1CBA
:1040E00020780028F8D12846BDE8F0812DE9F0417C
:1040F000FCF7D2FD184C0025184F21684FF40053EF
:10410000012910D0012601281ED010B3022810D199
:104110004FF4E6700146FFF765FA0122194638466A
:10412000FDF7BFFA04E0012805D048B1022800D10C
:104130002560BDE8F081012219463846FDF7B1FA45
:10414000BDE8F041FCF7B8B9012219463846FDF741
:10415000A8FA2660EDE700003000002000000240D1
:104160002DE9F047FCF798FD1B4C1C4F4FF0000960
:1041700021684FF4005301290ED001250626DFF8EF
:10418000608001281FD018B3022811D14FF4E670C7
:104190000146FFF727FA04E001280BD078B1022886
:1041A00006D1012219463846FDF77BFAC4F8009083
:1041B000BDE8F087012219463846FDF772FABDE8DE
:1041C000F047FCF7FBBA012219463846FDF769FAB9
:1041D00088F800602560EBE7300000200000024016
:1041E0008600002010B504460420FDF7E9FD0148D3
:1041F000046010BD0400002070B5054600244FF493
:104200007A7603E0304600F005F8641CAC42F9D33E
:1042100070BD000070B54FF0E024002265690949C7
:10422000A36909684843A1699942FCD002D2A3EB73
:10423000010302E0A5EB010633441A440B46824217
:10424000F1D370BD0400002013B54FF6FF730122B7
:1042500069460248FEF718FA00981CBDC403002006
:1042600010B5002821D0114B0022001F196803E06F
:10427000814203D80A4649680029F9D152B113682E
:10428000841A9C4204D1006818441060104602E071
:10429000506000E0186039B102680B1A934203D1F4
:1042A0000B681A4402604968416010BD9C00002000
:1042B00070B50024084D094E05E000BF50F82400F9
:1042C000FFF7CEFF641C308884422868F6DBBDE827
:1042D0007040FFF7C5BF0000880000203E000020AE
:1042E000FDF7F2F9FFF7E2F9B420FFF77BFFFEF7E5
:1042F0008FFDFEF77FFDFEF75BFFFEF77BFFFEF70E
:10430000CDFEFEF7F9FEFEF725FFFEF74BFDFEF7AB
:104310007FFAFEF759FAFEF779FEFFF787F9FFF704
:104320006BFE334D0727334CA5F1C80800262078D3
:104330000A28FCD2DFE800F0180605384B4E515829
:104340003254F4E7FCF7ECFBFFF714F9A0880128DE
:10435000EDD128796F2804D168796B2801D1082024
:104360001AE0A6806680E2E7A0880128DFD12879DC
:10437000662808D062280BD07228F2D168796B28A1
:10438000EFD12770EDE768797728EAD1042003E0C0
:1043900068796B28E5D106202070E2E7FFF7EEFD93
:1043A0000128C4D1032010E098F80410772907D021
:1043B0007229BCD198F805006B28B8D12770B6E7F0
:1043C00098F805007428B2D105202070AFE7FEF7F9
:1043D00035FFACE7FEF794FFA9E7FEF7E7FFA6E796
:1043E000FFF752F92670A2E7FFF742F89FE70000B7
:1043F000FC02002028000020F0B50B30154D20F005
:1044000007010024144A0FE003688B420BD38B4250
:1044100005D95E1A43184768C3E9006700E043689E
:10442000136002C004E0021D10680028ECD1204691
:10443000002802D1286808B10020F0BD064A0748CC
:104440001060074A121A22F00702C0E90024012076
:104450002860D7E7A00000209C00002074070020FF
:10446000700900200006101600061016000000005B
:104470000102030401020304060708099C44000822
:1044800000000020A4000000AC40000840450008E7
:10449000A4000020CC0C0000BC4000080024F40064
:1044A000000000000000000000000000000000000C
:1044B00000000000000000000000000000000000FC
:1044C00000000000010000000000000001000000EA
:1044D000000000000000000000000000D007000005
:1044E0000000000000000000303132333435363730
:1044F00038392E76002A4F424A2A54534B2A4C4FC1
:104500004323726D23626D23777423303030AA0900
:10451000200000000003000255AA021055AA021252
:104520005501040000000000000000000000000031
:10453000000000000000000000000000000000007B
:04000005080001AD41
:00000001FF
