:020000040800F2
:10000000A80C0020C1010008292E0008DD250008E9
:10001000992B0008B5090008F93700080000000016
:100020000000000000000000000000004D2E00084D
:10003000690A0008000000004B2E00087D2E000811
:10004000DB010008DB010008DB010008DB01000820
:10005000DB010008DB010008DB010008DB01000810
:10006000DB010008DB010008DB010008DB01000800
:10007000DB010008DB010008DB010008DB010008F0
:10008000DB010008DB01000841030008DB01000878
:10009000DB010008DB010008DB010008DB010008D0
:1000A000DB010008DB010008DB010008DB010008C0
:1000B000DB010008892F0008DB010008DB010008D4
:1000C000DB010008DB010008DB010008DB010008A0
:1000D000DB010008713600089D360008C9360008AB
:1000E000DB010008DB010008DB010008DB01000880
:1000F000DB010008DB010008DB010008DB01000870
:10010000DB010008DB010008DB010008DB0100085F
:10011000DB010008DB010008DB010008DB0100084F
:10012000B9090008DB010008DB010008DB01000859
:10013000DB010008DB010008DB010008DB0100082F
:10014000DB010008DB010008DB010008DB0100081F
:10015000DB010008DB010008DB010008DB0100080F
:10016000DB010008DB010008DB010008DB010008FF
:10017000DB010008DB010008DB01000800000000D3
:10018000DB010008DB010008DB010008DB010008DF
:10019000DB010008DB010008DB010008DB010008CF
:1001A000DB010008DB010008DB010008DFF80CD0F0
:1001B00000F02EF8004800473D3B0008A80C002046
:1001C0000648804706480047FEE7FEE7FEE7FEE7F1
:1001D000FEE7FEE7FEE7FEE7FEE7FEE7352F000855
:1001E000AD01000830B50B46014600202022012455
:1001F00009E021FA02F59D4205D303FA02F5491BF5
:1002000004FA02F52844151EA2F10102F1DC30BD0A
:10021000064C074D06E0E06840F0010394E8070053
:1002200098471034AC42F6D3FFF7C4FFC03C000837
:10023000E03C00082DE9F0478146002615460C46B3
:100240003746480003F0FAFC06E000BF39F8171003
:1002500020F817107F1CBFB2A742F7D30023621EFD
:1002600014E000210EE000BF00EB410830F81170EF
:10027000B8F802C0674503D220F811C0A8F8027090
:10028000491C89B29142EFDB5B1C9BB29342E8DBD5
:100290002946621A05E000BF39F81130491C1E4496
:1002A00089B28A42F8DC694204EB4101B6FBF1F104
:1002B0008CB203F0FDFB2046BDE8F08710B5014687
:1002C000806B026C12F0500F05D0806BC26CBDE8E1
:1002D000104008461047016C41F400710164016848
:1002E0008A6812F0405F17D18269AAB9CA6A12F40B
:1002F000700F02D08A6852050ED44A6822F020029C
:100300004A60016C21F480710164016CC90403D45A
:10031000016C41F00101016400F01EFD10BD10B53B
:10032000806B40210164416C41F00401416400F0A4
:1003300015FD10BD10B5806B00F00FFD10BD000065
:10034000014800F00CBD0000380500204A4910B5F6
:10035000D1F8042322F44032C1F80423D1F8042355
:1003600043681A43C1F8042301684A6822F4807282
:100370004A6001684A68036942EA03224A600168E8
:100380004A6822F040724A6001684A6883681A43EA
:100390004A6001688A6822F400628A6001688A689B
:1003A000C3681A438A60816A6FF07062D142016843
:1003B0008A6822F070628A6001688A680CD0836A59
:1003C0001A438A6001688A6822F040528A60016894
:1003D0008A68C36A1A4301E022F040528A600168C9
:1003E0008A6822F002028A6001688A68836942EAA8
:1003F00043028A60016A002901684A6815D042F404
:1004000000624A6001684A6822F460424A600168FA
:100410004B684FF46044426A94FAA4F4B4FA84F44A
:10042000521EA24013434B6002E022F400624A6075
:100430000168CA6A22F47002CA620168CA6A838BC0
:100440000E4C04EB03531A43CA6201688A6822F413
:1004500000728A6001688A68036B42EA43228A60FC
:1004600001688A6822F480628A6001688A6840694B
:1004700042EA8020886010BD002001400000F0FFAB
:100480002DE9F047994C4FF480484146204601F051
:100490005BF8974D4FF4E6764FF4005A4FF400475F
:1004A00078B13946A146204601F04EF848B1002007
:1004B000904C28600121204601F046F801281CD00C
:1004C00082E02868401C2860B0F5FA6F7EDD414666
:1004D000204601F039F828B13946204601F034F8B9
:1004E000002873D13046314602F0B2FC5146204616
:1004F000BDE8F047012201F02CB80221204601F0AE
:1005000023F8012860D10821204601F01DF80128B8
:100510005AD11021204601F017F8012854D1414644
:10052000204601F011F801284ED168684FF6E857CF
:10053000401C6860B84247DD0121204601F004F804
:10054000012841D10221204600F0FEFF01283BD1C5
:100550000821204600F0F8FFB0BB1021204600F033
:10056000F3FF012830D14146204600F0EDFF01287D
:100570002AD1A868401CA860B84225DD0121204688
:1005800000F0E2FF01281FD10221204600F0DCFF2D
:10059000012819D10821204600F0D6FFA0B910216A
:1005A000204600F0D1FF01280ED14146204600F040
:1005B000CBFF012808D13046314602F049FC012228
:1005C0005146484600F0C5FF012100E08BE020467F
:1005D00000F0BAFF012816D10221204600F0B4FF36
:1005E000012810D10821204600F0AEFF58B9102193
:1005F000204600F0A9FF012805D14146204600F021
:10060000A3FF012806D00121204600F09DFF01280C
:1006100002D012E0142132E00221204600F094FFC3
:1006200058B91021204600F08FFF012805D141461E
:10063000204600F089FF012806D00121204600F065
:1006400083FF012803D013E014211E2047E002217C
:10065000204600F079FF01280AD11021204600F041
:1006600073FF28B94146204600F06EFF012805D0EF
:100670000121204600F068FF18B114E01E2114206B
:100680002DE00221204600F05FFF01280BD1102150
:10069000204600F059FF012805D14146204600F0D0
:1006A00053FF012819D00121204600F04DFF0128F9
:1006B00019D10221204600F047FF012813D1102153
:1006C000204600F041FF01280DD14146204600F0B0
:1006D0003BFF002807D12821D1E714212820BDE8BD
:1006E000F04702F0B5BBBDE8F08700000000024013
:1006F000180000200004024010B54FF47A7423461D
:1007000004220949094801F00BFF23460422084945
:10071000064801F005FF2346BDE8104001220549C7
:10072000024801F0FDBE000065000020FC02002030
:1007300040030020690000202DE9F047994C4FF458
:1007400080463146204600F0FFFE974D4FF4005999
:10075000770078B13946A046204600F0F5FE48B152
:100760000020924CE8600121204600F0EDFE0128B7
:100770001DD086E0E868401CE860B0F5FA6F7CDDCB
:100780003146204600F0E0FE28B13946204600F010
:10079000DBFE002871D14FF4E670014602F058FBF1
:1007A00049462046BDE8F047012200F0D2BE0221B2
:1007B000204600F0C9FE012863D10821204600F040
:1007C000C3FE01285DD11021204600F0BDFE0128A6
:1007D00057D13146204600F0B7FE012851D1286993
:1007E0004FF6E857401C2861B8424ADD01212046F7
:1007F00000F0AAFE012844D10221204600F0A4FE08
:1008000001283ED10821204600F09EFEB0BB1021F9
:10081000204600F099FE012833D13146204600F0F1
:1008200093FE01282DD16869401C6861B84228DD1B
:100830000121204600F088FE012822D10221204615
:1008400000F082FE01281CD10821204600F07CFE29
:10085000A0B91021204600F077FE012811D13146C1
:10086000204600F071FE01280BD10021084602F05D
:10087000EFFA01224946404601E090E001E000F035
:1008800068FE4B4C0421204600F05EFE012816D184
:100890000821204600F058FE012810D110212046E2
:1008A00000F052FE58B92021204600F04DFE0128EC
:1008B00005D14021204600F047FE012806D0042142
:1008C000204600F041FE012802D012E0142132E05F
:1008D0000821204600F038FE58B92021204600F0BB
:1008E00033FE012805D14021204600F02DFE0128CD
:1008F00006D00421204600F027FE012803D013E093
:1009000014211E2047E00821204600F01DFE01288A
:100910000AD12021204600F017FE28B940212046A8
:1009200000F012FE012805D00421204600F00CFE44
:1009300018B114E01E2114202DE00821204600F0FB
:1009400003FE01280BD12021204600F0FDFD0128E7
:1009500005D14021204600F0F7FD012819D00421DF
:10096000204600F0F1FD012819D10821204600F0B1
:10097000EBFD012813D12021204600F0E5FD0128E0
:100980000DD14021204600F0DFFD002807D12821AD
:10099000D1E714212820BDE8F04702F059BABDE89C
:1009A000F087000000000240180000200004024010
:1009B00000100240FEE70000014800F067BB0000A5
:1009C0008005002001681823CAB2103AB2FBF3F286
:1009D000054B6FF30901032A9B5CC36500D9091D10
:1009E0008165084670470000A83C000810B5014624
:1009F00000208B698A6A4FF0C07453B1B3F5005F71
:100A000015D072B1012A0CD0022A0AD0032A09D1CA
:100A100004E01AB1012A06D0022A03D1C96AC90129
:100A200000D5012010BDC96AA142FAD010BD002A2C
:100A3000F7D0012AF2D0022AF3D0032AF3D010BD56
:100A400030B50468256825F4802525600468636056
:100A50008368402B036803D099600068C26030BD92
:100A60009A600068C16030BD704770B50C460146A1
:100A70004FF0784001F0FCFD032002F0E5FF4FF05D
:100A80007A4506E0284601F0F3FD0320641C02F0DD
:100A9000DBFF21780029F5D170BDFEE72DE9F0419B
:100AA000204C00254FF47A782078012806D143465F
:100AB00004221D491D4801F033FD25701C4E30886D
:100AC00001282BD11B4801274178032904D015297F
:100AD00015D0032905D01AE08178102905D01229F4
:100AE00007D0817820290FD011E0C078012814D0D8
:100AF0000DE0C07858B943460B220F490AE0FFF7D2
:100B0000FBFD00F01DF80BE0C078802808D00B49F1
:100B100043460422054801F003FD3580BDE8F0811D
:100B20002770FAE7830000207B00002044040020A7
:100B3000480000203C030020700000207F000020BF
:100B40002DE9F0472B480022284907682B48092443
:100B5000274D9146284B4FF0010A068842E000BF1E
:100B600057F8220091F80480D0F800C0C44538D16D
:100B700091F80580D0F804C0C44532D191F80680C0
:100B8000D0F808C0C4452CD191F80780D0F80CC02B
:100B9000C44526D1D0F810C0BCF1700F03D0BCF111
:100BA0006E0F13D01DE040696C2806D0722806D065
:100BB000662806D0732806D013E02C700CE02C7049
:100BC0000DE02C700DE0042018700AE040696C28DC
:100BD00002D0722803D004E083F8009001E083F88B
:100BE00000A0521CB242BBDDBDE8F0873C030020F0
:100BF0003C00002088000020840000204C000020E1
:100C00007047000078B50024009490F83C20012A39
:100C100019D0012280F83C200A6807230568092AB8
:100C200013D9EE680A3A02EB420293409E43EE600B
:100C30000B788A680A3B03EB43039A400368DD683C
:100C40002A43DA6010E0022078BD2E6902EB4202EE
:100C500093409E432E610A788B6802EB42029340D8
:100C6000026815692B4313614A681F23072A13D2B0
:100C700005686E6B521E02EB820293409E436E63C8
:100C80000A8893B20A79521E02EB820293400268EC
:100C9000556B2B43536327E005680D2A12D22E6B48
:100CA000D21F02EB820293409E432E630B790A8887
:100CB000DB1F92B203EB83039A4003681D6B2A4348
:100CC0001A6311E0EE6A0D3A02EB820293409E43F2
:100CD000EE620B790A880D3B92B203EB83039A40D4
:100CE0000368DD6A2A43DA62174A0368934208D12F
:100CF0000B68122B05D1D2F8043343F48003C2F8F9
:100D00000433036893421BD1104B0D689D4201D000
:100D1000112D15D1D2F8045345F40005C2F804533F
:100D2000096899420CD10A490A4A0968B1FBF2F1F3
:100D300001EB8101490000E0491E00910029FBD12F
:100D400080F83C40002078BD0020014012000010D7
:100D50000000002040420F0070477047704770B598
:100D60000446006801684268C1F34001C2F34012C2
:100D700051B34AB3216CC90603D4216C41F400710C
:100D80002164816811F0405F17D1A169A9B9C16AD6
:100D900011F4700F02D0816849050ED4416821F02A
:100DA00020014160206C20F480702064206CC0041D
:100DB00003D4206C40F0010020642046FFF7CCFFF4
:100DC00021686FF012000860206801684268C1F372
:100DD0008001C2F3C01289B382B3216CC90603D467
:100DE000216C41F400512164816811F4401F1ED12F
:100DF000816B11F4401F02D08168490517D4416806
:100E0000490514D4816811F0405F10D1A16971B90E
:100E1000416821F080014160206C20F48050206402
:100E2000206CC00503D4206C40F0010020642046F3
:100E3000FFF7E6FE21686FF00C000860206801688B
:100E4000426811F0010FC2F380120ED06AB100683F
:100E5000C0070AD0206C40F480302064204600F0A7
:100E600046F821686FF00100086020680168426858
:100E7000C1F34011C2F3806200290DD0002A0BD0CB
:100E8000616C41F0020161646FF02005056020464D
:100E9000FFF764FF2068056070BD70B504004FF077
:100EA000000503D0206C002610B107E0012070BDC2
:100EB000666484F83C60204600F01AF8206CC00696
:100EC00010D4206C20F4885040F0020020642046AA
:100ED000FFF73CFA6664206C20F0020040F001004D
:100EE000206400E0012584F83C60284670BD70470E
:100EF00070B506460068184986B088422AD117485E
:100F00000025016841F4807101600068694600F4C1
:100F100080700590012000900320CDE90105104864
:100F200000F02CFA104C0F48C4E900050015A5602C
:100F3000C4E90350400060618000C4E90605000177
:100F4000C4E90805204600F075F908B1FFF7A5FDD2
:100F5000B463A66306B070BD00200140443802406F
:100F6000000802401064024080050020F8B50D46DC
:100F700000210446009190F83C00012807D0012090
:100F800084F83C0020688368DB0702D011E002206F
:100F9000F8BD836843F0010383602D482D4B006842
:100FA000B0FBF3F000EB400000E0401E0090002892
:100FB000FBD120688368DB0748D0236C40F20166D0
:100FC000B34343F4807323644068400505D5206C27
:100FD00020F4005040F480502064206CC00404D5FC
:100FE000606C20F00600606400E0616484F83C10EE
:100FF000A16B1948C863A16B18480864A16B184815
:10100000C86421686FF0220008602068416841F0E0
:10101000806141602068816841F48071816021684D
:1010200013462A464C31A06B00F06CF90D49D1F8FB
:101030000403C006206801D0884207D1816811F0FE
:10104000405F03D1816841F0804181600020F8BD9C
:101050000000002040420F00BD02000835030008D8
:101060001F0300080020014090F83510022903D02A
:101070008021416501207047052180F83510006806
:10108000016821F001010160002070472DE9F8435B
:1010900004464FF00008CDF8008064484FF4165124
:1010A000A56D0068B0FBF1F72E6894F85C1008207D
:1010B00000FA01F131420FD021680A6852070BD5BE
:1010C0000A6822F004020A6094F85C108840A86064
:1010D000606D40F00100606594F85C1054488840F1
:1010E000304208D021684969090604D5A860606DBE
:1010F00040F0020060654E4894F85C10C01C8840C7
:10110000304208D021680968890704D5A860606D5D
:1011100040F00400606594F85C1010208840304274
:1011200018D021680968090714D5A86020680168EB
:10113000490304D50068000308D5A16C07E00168E5
:10114000C90503D4016821F008010160216C09B1CF
:101150002046884794F85C102020884030424FF0A9
:10116000010631D021680968C9062DD5A86094F818
:10117000350005282068016806D0490347D5006876
:1011800000031DD4616C1CE021F016010160206891
:10119000416921F080014161206C08B9A06C20B147
:1011A0002068016821F00801016094F85C103F207C
:1011B0008840A86084F8348084F83560216D1FE091
:1011C000E16B09B120468847606D00282BD0606D27
:1011D000C00714D0052084F835002068016821F08C
:1011E000010101600098401C0090B84203D82068BB
:1011F0000068C007F6D184F8348084F83560E16C6B
:10120000002910D001B02046BDE8F043084701682E
:10121000C905D5D4016821F01001016084F834803B
:1012200084F83560CCE7BDE8F883000000000020BA
:10123000010080002DE9F041044600F08FF90646D8
:101240005CB1002584F83450022084F83500206811
:10125000016821F0010101600DE00120BDE8F0818D
:1012600000F07CF9801B052805D92020606503204B
:1012700084F83500F2E720680068C007F0D12268E2
:1012800011681F480140D4E901031843D4E903362B
:101290003343184363691843A3691843E369184348
:1012A000236A18430843616A042903D1D4E90B1364
:1012B00019430843106020684069666A20F00701FE
:1012C00030460E43012704280AD1A06A064320466F
:1012D000FFF78CFB20B14020606584F83570BCE7D7
:1012E000206846612046FFF76DFB94F85C203F21A3
:1012F00091408160656584F835700020AEE700009C
:101300003F8010F02DE9F0410446866D90F83400DE
:10131000002501280DD0012084F8340094F83570A0
:101320000020012F07D084F8340002252846BDE8AC
:10133000F0810220FBE7022784F8357060652046C3
:10134000FFF77EFB94F85C103F208840B060206877
:10135000016841F0160101602068416941F0800197
:101360004161206C20B12068016841F008010160F2
:101370002068016841F001010160D7E72DE9F84FCD
:10138000DFF890B100224FF001084FF0030A4FF050
:101390000F090BF1040E00BF0B6808FA02F423409A
:1013A000A3426ED14D68022D01D0122D0ED1D50869
:1013B00000EB850CDCF820505607F70E09FA07F60B
:1013C000B5430E69BE402E43CCF820600668550038
:1013D0000F790AFA05FC07F0030726EA0C06AF406E
:1013E000374307604E68012E05D0022E03D0112E20
:1013F00001D0122E0ED18768CE6827EA0C07AE40C6
:101400003E4386604668A6430C79C4F300149440BA
:1014100034434460C4688E6824EA0C04AE4026431A
:10142000C6604C68E4006FD53B4C256845F48045A8
:101430002560246822F0030504F480440094374CAE
:101440002E19D6F8084895072F0F09FA07F5AC436F
:10145000334DA84201D100252EE0324DA84201D1E2
:10146000012529E0304DA84201D1022524E02F4D6D
:10147000A84201D103251FE02D4DA84202D1042529
:101480001AE041E02B4DA84201D1052514E02A4D78
:10149000A84201D106250FE0284DA84201D1072519
:1014A0000AE0274DA84201D1082505E0254DA842B4
:1014B00001D1092500E00A25BD402543C6F808589A
:1014C000DBF800405D464E689C43F60300D51C43A4
:1014D0002C60DEF8004075464E689C43B60300D58C
:1014E0001C432C600B4D08352C684E689C43F6025B
:1014F00000D51C432C60074D0C352C684E689C436E
:10150000B60200D51C432C60521C102AFFF444AFD5
:10151000BDE8F88F003C01404438024000300140F3
:10152000000002400004024000080240000C02409B
:10153000001002400014024000180240001C02404B
:1015400000200240002402400069084000D0012031
:1015500070470AB1816170470904FBE701480068E0
:10156000704700003400002002480168491C0160F7
:1015700070470000340000200B4810B5016841F4AA
:1015800000710160016841F480610160016841F40B
:1015900080710160032000F075F8002000F006F86B
:1015A00000F018F8002010BD003C024010B50446C1
:1015B00007484FF47A710068B0FBF1F000F065FB6A
:1015C00000222146501E00F03DF8002010BD000012
:1015D0000000002010B5032000F054F8002211464E
:1015E0006FF00B0000F02EF8002211466FF00A0099
:1015F00000F028F8002211466FF0090000F022F8F0
:1016000000221146501F00F01DF800221146101F45
:1016100000F018F800221146901E00F013F8002286
:10162000BDE810401146501E00F00CB800F01F023B
:10163000012191404009800000F1E020C0F8001134
:1016400070470000F0B40E4B1B680C46C3F3022336
:10165000C3F10705042D00D90425191D072901D25E
:10166000002300E0DB1E012606FA05F1491E214099
:1016700099409E40761E16403143F0BC01F0D5BB28
:101680000CED00E0064900F0070208684FF6FF0382
:10169000184040EA0220034A1043086070470000E7
:1016A0000CED00E00000FA052DE9F8431E48016842
:1016B00041F0805101600068012600F080500090E8
:1016C000300490FAA0F0194FB0FA80F047F820608B
:1016D000FFF744FF05464FF47A78154C05E000BF4C
:1016E000FFF73CFF401B404515D86068C003F7D5A5
:1016F0004FF4003090FAA0F0B0FA80F047F8206084
:10170000FFF72CFF0546464608E000BFFFF726FF1F
:10171000401BB04202D90320BDE8F8836068800313
:10172000F4D50020F8E700004038024000000E42E7
:10173000007000402DE9F047DFF8649105460F4640
:10174000D9F8000000F00F01F8B28046B94208D283
:10175000014689F80010D9F8000000F00F00B842E7
:1017600074D128784F4C800705D52068A96820F0EF
:10177000F000084320602878C00759D049496868BC
:10178000083901281AD002281BD0032819D009686B
:10179000890700295ADA216821F0030101432160F9
:1017A000FFF7DCFE6968064641F28830012911D056
:1017B00002291DD00329824627D035E00968890314
:1017C000E7E709688901E4E7FFF7C8FE811B514597
:1017D00001D926E082462068C0F381000128F3D1B8
:1017E00026E000BFFFF7BAFE811B514501D918E082
:1017F00082462068C0F381000228F3D118E000BFC0
:10180000FFF7ACFE811B51450BD82068C0F3810067
:101810000328F5D10CE000BFFFF7A0FE811B514566
:1018200002D90320BDE8F087206810F00C0FF3D137
:10183000D9F80010484601F00F01B94208D980F8E4
:101840000080006800F00F00B84201D00120E9E7F5
:101850002878400705D52068E96820F4E05008435F
:1018600020602878000706D52068296920F46040A8
:1018700040EAC100206000F051F82168F02292FA9D
:10188000A2F201F0F001B2FA82F2D140064A515CB4
:10189000C840064908600020FFF788FE0020C1E725
:1018A000003C024008380240B03C00080000002024
:1018B00001480068704700000000002008480949FE
:1018C000006809684FF4E05292FAA2F201F4E05184
:1018D000B2FA82F2D140044A515CC840704700001D
:1018E0000000002008380240B03C000808480949C0
:1018F000006809684FF4604292FAA2F201F4604174
:10190000B2FA82F2D140044A515CC84070470000EC
:101910000000002008380240B03C000830B51948EB
:10192000006810F00C01184812D0441004290ED0A1
:1019300008290DD11349091F0A6802F03F030A68FC
:10194000550247F6C07204D5B4FBF3F003E020461D
:1019500030BDB0FBF3F00B680968134092FAA2F2B5
:10196000B2FA82F2D34058434FF4403292FAA2F2D4
:1019700001F44031B2FA82F2D140491C4900B0FB77
:10198000F1F030BD083802400024F4002DE9F84F92
:101990000446DFF8CC820078A8F1040BC007ABF155
:1019A000040537D0D8F800104046C1F38101012961
:1019B00008D00068C0F3810002280AD1DBF80000DB
:1019C000400206D52868800324D56068002878D0B6
:1019D00020E0A3492079891F0870606868B1FFF78B
:1019E000BDFD064605E000BFFFF7B8FD801B64287B
:1019F00068D828688003F7D50CE0FFF7AFFD0646EE
:101A000005E000BFFFF7AAFD801B6428F0D8286816
:101A10008003F7D42078934E80074FF0010A4FF0EF
:101A2000000742D5D8F80010404611F00C0F08D03E
:101A30000068C0F3810002280AD1DBF800004002F0
:101A400006D42868800714D5E068012839D110E051
:101A5000E068D8B1C6F800A0FFF780FD814605E038
:101A6000FFF77CFDA0EB09000228C1D82868800799
:101A7000F6D52868F82292FAA2F22169B2FA82F227
:101A800020F0F8009140084328600EE03760FFF72F
:101A900065FD814606E000BFFFF760FDA0EB090091
:101AA00002280FD828688007F6D42078000728D5A8
:101AB0006D486169A1B1C0F800A0FFF74FFD8146F4
:101AC00008E0CAE079E000BFFFF748FDA0EB09009D
:101AD000022872D862486C3000688007F4D510E0A4
:101AE0000760FFF73BFD814606E000BFFFF736FDCC
:101AF000A0EB0900022860D859486C3000688007C4
:101B0000F4D42078400749D555483830016841F071
:101B100080510160006800F08050009053480168D7
:101B200041F480710160FFF719FD814606E000BFB6
:101B3000FFF714FDA0EB090002283ED84B480068CF
:101B4000C005F5D5DFF81891207A09F1680989F800
:101B50000000A06888B1FFF701FD009008E000BF19
:101B6000FFF7FCFC0099411A41F2883081426CD8A1
:101B7000D9F800008007F3D510E0FFF7EFFC0090E4
:101B800008E000BFFFF7EAFC0099411A41F28830F3
:101B900081425AD8D9F800008007F3D4A069E0B395
:101BA000D8F80010C1F38101022956D00228376607
:101BB00004D0FFF7D3FC04464AE046E0FFF7CEFC32
:101BC000074604E0FFF7CAFCC01B02283DD828687E
:101BD0008001F7D4D4E90701084347F6C07292FAAE
:101BE000A2F2616AB2FA82F29140A26A4FF0FF3328
:101BF00003EB52024FF4403393FAA3F3B3FA83F3A7
:101C00009A40114308434FF0706292FAA2F2E16ADF
:101C1000B2FA82F29140084300E01CE0CBF80000E9
:101C2000C6F860A0FFF79AFC044604E0FFF796FCB4
:101C3000001B022809D828688001F7D50BE000BFF7
:101C4000FFF78CFC001B022802D90320BDE8F88FA7
:101C500028688001F4D40020F8E70120F6E70000AE
:101C60000838024000004742800E474200700040A2
:101C70004FF0E0210428086903D020F00400086137
:101C8000704740F00400FAE7704710B5401EB0F10D
:101C9000807F01D3012010BD4FF0E02460610F214F
:101CA000601701F0C2F80020A06107202061002029
:101CB00010BD10B5FFF7E8FF10BD7047704730B595
:101CC00090F83820012A20D0012280F83820022301
:101CD00080F8393003685C6824F070045C60036845
:101CE0005C680D682C435C6003689C6824F0800489
:101CF0009C6003689C6849680C439C6080F83920AC
:101D0000002180F83810084630BD022030BD10B5E3
:101D1000040003D094F8390010B107E0012010BD91
:101D2000002084F83800204600F00CF8022084F8E7
:101D30003900211D206801F02DF9012084F83900B7
:101D4000002010BD08B5124A01681248914207D11F
:101D5000016841F002010160006800F0020009E042
:101D60000D4A914208D1016841F08001016000688C
:101D700000F08000009008BD084A9142FBD1016844
:101D800041F480710160006800F48070F2E70000A7
:101D90000004004040380240001C00400020004089
:101DA0000168CA6842F00102CA600068016841F037
:101DB000010101600020704770B5044690F83800BA
:101DC000012817D0012584F83850022084F8390002
:101DD0002068826822F0770222F47F4282600868DD
:101DE000502837D00DDC202859D005DC88B31028C6
:101DF00041D151E0022070BD302853D040283AD163
:101E00003FE060282ED070280BD0B0F5805F03D063
:101E1000B0F5005F2FD110E02068816821F0070144
:101E200015E0CB68D1E90121206801F01EF9216895
:101E3000886840F0770088601DE0CB68D1E9012117
:101E4000206801F012F92068816841F480418160C6
:101E500011E01EE0CA684968206801F0CFF95021FE
:101E6000206806E0CA684968206801F0D8F9602156
:101E7000206801F004F984F83950002084F8380013
:101E800070BDCA684968206801F0B8F9402120682F
:101E9000EFE700212068ECE710212068E9E7202126
:101EA0002068E6E730212068E3E7704770B5044614
:101EB000006801694FF00005C943890715D4C1685E
:101EC000C943890711D4E91E0161012020762068E9
:101ED00080698007204602D0FFF7E7FF04E000F0AA
:101EE000B9F8204600F03BF9257620680169C9431E
:101EF000490717D4C168C943490713D46FF00401D7
:101F00000161022020762068806910F4407F20461D
:101F100002D0FFF7CAFF04E000F09CF8204600F072
:101F20001EF9257620680169C943090716D4C168DE
:101F3000C943090712D46FF008010161042020761B
:101F40002068C0698007204602D0FFF7AEFF04E09A
:101F500000F080F8204600F002F92576206801693B
:101F6000C943C90617D4C168C943C90613D46FF061
:101F700010010161082020762068C06910F4407FBC
:101F8000204602D0FFF791FF04E000F063F82046FE
:101F900000F0E5F8257620680169C943C90708D132
:101FA000C168C943C90704D1891E0161204600F0F8
:101FB000F3F820680169C943090609D4C168C94317
:101FC000090605D46FF0800101612046FFF775FE18
:101FD00020680169C943490609D4C168C943490653
:101FE00005D46FF040010161204600F0D6F820686A
:101FF0000169C94389060BD4C168C943890607D45E
:102000006FF0200101612046BDE87040FFF756BE29
:1020100070BD000030B50C4D036800210224092278
:102020000A4885B0AB4201D1831503E0084DAB42AD
:1020300008D15B150093CDE90141CDE90312694652
:10204000FFF79CF905B030BD001C004000140240B1
:1020500000200040704770B5044690F838000D46E7
:1020600001280DD0012684F83860022084F8390058
:1020700042B1042A18D0082A2AD00C2A4DD139E0BE
:10208000022070BD206801F003F82068816941F0EA
:10209000080181612068816921F004018161206863
:1020A00081692A69114311E0206801F01DF8206858
:1020B000816941F4006181612068816921F4806156
:1020C0008161206881692A6941EA0221816124E0F5
:1020D000206801F03BF82068C16941F00801C16146
:1020E0002068C16921F00401C1612068C1692A69C1
:1020F000114311E0206801F059F82068C16941F4EA
:102100000061C1612068C16921F48061C1612068FA
:10211000C1692A6941EA0221C16184F8396000205D
:1021200084F8380070BD10B5040003D094F839006D
:1021300010B107E0012010BD002084F838002046CF
:1021400000F00CF8022084F83900211D206800F00E
:1021500021FF012084F83900002010BD704770472E
:1021600010B504460068012200F074FF0849206899
:10217000884202D00749884203D1416C41F40041B2
:1021800041642068016841F001010160002010BD38
:10219000000001400004014070477047704710F88C
:1021A000391F40780843704770B5026804461068CC
:1021B000D168536910F00F0F51D003F0010501F4FD
:1021C000907635435DD0C20705D0CA0503D5E26BD2
:1021D00042F00102E263420705D5DA0703D0E26B61
:1021E00042F00202E263820705D5DA0703D0E26B10
:1021F00042F00402E263020705D5DA0703D0E26B7E
:1022000042F00802E263E26B002A34D0800604D573
:10221000880602D5204601F02AF820684069E16B63
:10222000C0F3801001F008010143204624D001F0E2
:1022300010F82068416949061AD5416921F040012A
:102240004161606BA0B11B490165606BFEF70CFF3B
:10225000002810D0606B016DBDE870400847830610
:102260000FD58B060DD52046BDE8704000F0FFBFAE
:102270002046FFF793FF70BDFFF790FF0020E0635B
:1022800070BD030606D50B0604D52046BDE8704098
:1022900001F08AB94006F3D54806F1D5D168204649
:1022A00021F04001D160202184F8391000F095F927
:1022B00070BD00004332000870B5040004D094F8EB
:1022C0003900002510B106E0012070BD84F83850B7
:1022D000204600F023F8242084F839002068C168E3
:1022E00021F40051C160204601F008F8206801691E
:1022F00021F4904101612068416921F02A01416186
:102300002068C16841F40051C160E563202084F871
:10231000390084F83A00002070BD000070B52449EF
:102320000268022401250726224886B08A420BD182
:1023300021490A6842F010020A60096801F01001A0
:1023400005914FF4C0610DE01B491C4B091F9A42D7
:1023500012D10A6842F400320A60096801F40031BF
:1023600005910C218DE832004FEA0D01CDE90346BD
:10237000FFF704F806B070BD11488242FAD1086830
:1023800040F4802008600868694600F480200590C9
:1023900010158DE83100CDE903460A48FEF7EEFF3F
:1023A0004FF400708DE8310069460748DEE7000011
:1023B0000010014000000240443802400044004048
:1023C0000048004000040240000C024090F83A30FF
:1023D000202B1DD1D1B1CAB190F83830012B17D0C4
:1023E00081628285C2850021C163222280F83A2061
:1023F00080F8381001684A6942F001024A610068B9
:10240000C16841F49071C16000207047012070479D
:102410000220704770B5304B0268012100209A42BB
:1024200019D12E4A2E4C13782E4A2A2B0AD0232B50
:102430000BD0118801290AD12B492C4E0C88C4F3EA
:102440000D053EE011802080F6E71080218070BDF0
:102450001080088070BD264B9A421FD1254A264D18
:10246000264B1478264AAA2C11D0552C13D0198843
:102470000129EFD11188234EC1F30D05491C89B202
:1024800074551180C729E5D91880108070BD198056
:1024900028801080EEE71880298070BD1A4B9A4280
:1024A000FBD11A4A1A4C13781A4A2A2B10D0232B24
:1024B000CBD011880129F0D11749184E0C88C4F3EC
:1024C0000D05641C7355A3B20B80C72BC0D870BD1B
:1024D00011802080F0E70000001001408C000020F7
:1024E000440000204200002038000020A40000200A
:1024F000004400408D0000204800002046000020DD
:102500003A0000203C030020004800408E000020DC
:10251000400000204A0000203E000020340200203D
:102520002DE9F843044690F839001E4617460D463B
:10253000202850D135B32FB394F8380001284AD061
:10254000012084F838004FF00008C4F83C802120B6
:1025500084F83900FFF702F8A784E78481464FF436
:102560008057E08C4B46401EE084A0684FF000028C
:10257000B8424FF080012046009611D101F045F895
:1025800000BB02E00120BDE8F8832888C0F3080101
:1025900020684160206908B16D1C08E0AD1C06E0B0
:1025A00001F033F870B9216815F8010B4860E08C30
:1025B0000028D6D14B46002240212046009601F04B
:1025C00024F808B10320DEE7202084F8390084F8DD
:1025D00038800020D7E70220D5E77047FEE70000EB
:1025E0000E4810B5016886B041F002010160006834
:1025F000012400F0020005904FF44070CDE9000482
:102600000220CDE9024069460548FEF7B7FE0548BD
:10261000C0F8A442C0F8A04206B010BD3038024055
:1026200000040240008043420E4810B5016886B0A5
:1026300041F0020101600068012400F002000590F1
:10264000C020CDE900040220CDE9024069460648D9
:10265000FEF794FE0548C0F89C42C0F8984206B0C8
:1026600010BD000030380240001C02400080434290
:102670002DE9F0474FF400581D4E0C460546002248
:10268000474641463046FEF764FF04F0F000000480
:1026900004F00F0100EB01342C430122394630468F
:1026A000FEF757FF00254FF480494FF40047002CF8
:1026B00001DA012200E0002249463046FEF749FFD8
:1026C000012239463046FEF744FF022001F0BCF9F2
:1026D000002239463046FEF73CFF64006D1C182D81
:1026E000E5D341463046BDE8F0470022FEF731BF52
:1026F000001C02407FB512481049002501604FF4CC
:102700008031C0E90115056105620124C56284615B
:10271000C4610463C5604461FEF7BFFB08B1FEF706
:10272000BCF90A208DE8310069460548FEF76AFACF
:10273000002801D0FEF7B1F97FBD00000020014064
:1027400038050020054808B5016841F480010160A2
:10275000006800F48000009008BD0000303802409E
:102760002DE9F04F744887B00026016841F0200140
:102770000160016801F020010591016841F08001CC
:102780000160016801F080010591016841F00101DB
:102790000160016801F001010591016841F0020149
:1027A0000160016801F002010591016841F0040136
:1027B0000160016801F004010591016841F0080120
:1027C0000160016801F008010591016841F0100104
:1027D0000160016801F010010591016841F04001BC
:1027E0000160016801F040010591016841F48071C8
:1027F00001600068012400F4807005905020CDE94C
:102800000004032569464D48CDE90245FEF7B6FDB3
:102810007C20CDE9000669464948CDE90245FEF72E
:10282000ADFD0C20CDE90006DFF818B16946584629
:10283000CDE90245FEF7A2FD6703CDE900746946C4
:102840004148CDE90245FEF799FDA803CDE9000610
:1028500069463D48CDE90245FEF790FD4FF46040E2
:10286000CDE9000469463948CDE90245FEF786FD09
:102870002002CDE9000469463548CDE90245FEF75E
:102880007DFD4FF4A050CDE9000469465846CDE9DE
:102890000245FEF773FDE603CDE90064DFF8B4906E
:1028A00069464846CDE90245FEF768FD4020CDE97E
:1028B0000004DFF8A4A069465046CDE90245FEF7C2
:1028C0005DFD4FF40078CDE9008469461B48CDE9F1
:1028D0000245FEF753FD012210215846FEF739FE4E
:1028E000012210211548FEF734FE01224021134831
:1028F000FEF72FFE012231464846FEF72AFE01224E
:1029000091025846FEF725FE012211035846FEF7B4
:1029100020FE002239460C48FEF71BFE0122402112
:102920005046FEF716FE012241460448FEF711FE0E
:1029300007B0BDE8F08F00003038024000080240C8
:10294000001002400018024000000240001C02403B
:102950000020024000040240000C024010B500229A
:1029600001211220FEF76EFE1220FEF75FFE00220C
:1029700003212520FEF766FE2520FEF757FE0022E4
:1029800004212620FEF75EFE2620FEF74FFE0022E1
:1029900005212720FEF756FE2720FEF747FE0022DE
:1029A00002213820FEF74EFE3820FEF73FFE0022BF
:1029B00006211D20FEF746FE1D20FEF737FE0B48C0
:1029C000FFF7EEF900210A48FFF7CAFB002108488B
:1029D000FFF7C6FB642207490748FEF7C7FA00283D
:1029E00003D0BDE81040FEF758B810BDFC0400202D
:1029F000C0040020E00500203805002010B515486F
:102A000088B01349016059210024C0E9011440F243
:102A1000F311C0E90314FFF77AF908B1FEF73DF8A6
:102A20000C48FFF780FB08B1FEF737F86020CDE9CE
:102A3000000402940022694606480494FFF70BFB49
:102A400008B1FEF72AF80348FFF7E4FA08B010BD12
:102A5000001C00408404002010B5154888B01349BC
:102A6000016059210024C0E9011440F2F311C0E9CA
:102A70000314FFF74CF908B1FEF70FF80C48FFF705
:102A800052FB08B1FEF709F86020CDE9000402947A
:102A90000022694606480494FFF7DDFA08B1FDF705
:102AA000FCFF0348FFF7B6FA08B010BD0020004055
:102AB000C004002010B5154886B01349016042F2E9
:102AC00027310024C0E9011442F20F71C0E9031458
:102AD000FFF71DF908B1FDF7E0FF4FF480500090BB
:102AE00069460A48FFF768F908B1FDF7D6FF049474
:102AF00004A906480594FFF7E2F8002801D0FDF785
:102B0000CCFF06B010BD000000040040FC04002013
:102B10000E4810B50C4901604FF46141416000213D
:102B200081600C22C160C0E904128161C161FFF7BC
:102B3000C3FB08B1FDF7B1FFBDE810400122044915
:102B40000248FFF743BC000000440040440400205A
:102B50008D0000200E4810B50C4901604FF4E131A2
:102B60004160002181600C22C160C0E904128161D2
:102B7000C161FFF7A1FB08B1FDF78FFFBDE8104071
:102B8000012204490248FFF721BC00000048004030
:102B9000FC0200208E000020FEE7000070B5284CEB
:102BA000032541F664132078052816D2DFE800F0EB
:102BB0001C1F16032B00234D002210212846FEF770
:102BC000C8FC002240212846FEF7C3FC4FF4D77012
:102BD000014600F03DF90220207070BDFDF75EFF58
:102BE000BDE87040FDF74CBC9621002001E00021BB
:102BF000962000F02DF9184600F026FF0021084627
:102C000000F026F919E04FF4E670014600F020F9D3
:102C100000F0F4FD00F074FF4FF47A76334604229E
:102C200009490A48FFF77CFC334603220849074854
:102C3000FFF776FC074908200870257070BD00007A
:102C4000840000200008024061000020FC020020F7
:102C50006D0000203C00002010B51B4C207802289D
:102C60002BD0032810D004280DD14FF4E670014674
:102C700000F0EEF800F0C2FD00F042FF134908201A
:102C800008700320207010BD114C00221021204636
:102C9000FEF75FFC002240212046FEF75AFC4FF46D
:102CA000D770014600F0D4F80AA000F0F9FDBDE8A5
:102CB00010404FF47A7000F0C7BEFDF7EFFEBDE89C
:102CC0001040FDF7DDBB0000840000203C00002028
:102CD000000802407965730070B5284C032541F661
:102CE00064132078052816D2DFE800F01C1F1603B5
:102CF0002B00234D012210212846FEF72AFC012239
:102D000040212846FEF725FC4FF4D770014600F01D
:102D10009FF80220207070BDFDF7C0FEBDE8704036
:102D2000FDF70ABD9621002001E00021962000F069
:102D30008FF8184600F088FE0021084600F088F859
:102D400019E04FF4E670014600F082F800F056FDFD
:102D500000F0D6FE4FF47A763346042209490A4839
:102D6000FFF7DEFB3346032208490748FFF7D8FB8D
:102D7000074908200870257070BD000084000020FD
:102D80000008024061000020FC0200206A000020D0
:102D90003C00002070B5214C032541F664132078D7
:102DA000052816D2DFE800F01C1F16032B001C4D6F
:102DB000012210212846FEF7CCFB012240212846A3
:102DC000FEF7C7FB4FF4D770014600F041F8022030
:102DD000207070BDFDF762FEBDE87040FDF7ACBC31
:102DE0009621002001E00021962000F031F81846DD
:102DF00000F02AFE0021084600F02AF80BE04FF40C
:102E0000E670014600F024F800F0F8FC00F078FECF
:102E1000044908200870257070BD0000840000205F
:102E2000000802403C00002070470907090E0028F6
:102E300006DA00F00F0000F1E02080F8141D704762
:102E400000F1E02080F800147047704770470000E0
:102E5000034A1268506303480068416370470000EA
:102E600084040020C004002010B54FF4E670014631
:102E7000FFF7EEFFBDE8104000F0C0BC10B5FEF754
:102E800073FBBDE81040FEF714BF000030B52748C3
:102E900093B00025016841F080510160006800F0A6
:102EA000805011902248016841F44041016000685F
:102EB000022400F440401190012000900190800510
:102EC000CDE90640082008904FF4B470CDE909041C
:102ED00004200B906846FEF759FD00B1FEE7FEF7AF
:102EE000E3FB00B1FEE70CA90F2081E831004FF4AD
:102EF000A0500F904FF48050109005210CA8FEF7C1
:102F000019FC00B1FEE7FEF7D3FC4FF47A71B0FB79
:102F1000F1F0FEF7BAFE0420FEF7AAFE00221146E9
:102F2000501EFEF78FFB13B030BD0000403802404A
:102F3000007000401048016841F4700101600F48C2
:102F4000016841F0010101600C4A00210832116062
:102F500002680B4B1A400260031D0A4A1A6002689D
:102F600022F48022026005480C30016002495806B4
:102F7000803908607047000088ED00E000380240AA
:102F8000FFFFF6FE103000240148FEF78FBF00005F
:102F9000FC040020F0B50268234B244D244E254F3D
:102FA000254C4FF0804C984209D0604507D0A8428C
:102FB00005D0B04203D0B84201D0A04204D122F0E3
:102FC000700E4A6842EA0E0298421BD0604519D042
:102FD000A84217D0B04215D0B84213D0A04211D0A9
:102FE000164DA8420ED0164DA8420BD0154DA84242
:102FF00008D0154DA84205D0144DA84202D0144D5A
:10300000A84203D122F44075CA682A4302608A6844
:10301000C2620A688262984201D0A04201D1096965
:10302000016301214161F0BD000001400004004046
:1030300000080040000C0040000401400040014036
:10304000004401400048014000180040001C0040BE
:103050000020004010B50123046A8B409C430462A9
:10306000036A8A401343036210BD10B5846842EAC4
:10307000032224F47F440A432243826010BD826805
:1030800022F070020A4342F007018160704700009D
:1030900030B5026A22F001020262026A4368846962
:1030A0000D6824F07304254322F002048A68224349
:1030B0000B4CA04202D00B4CA0420BD122F00804D2
:1030C000CA6823F4407322434C6922F004021C4373
:1030D0008B6923434360856149684163026230BD67
:1030E000000001400004014030B5026A22F01002E5
:1030F0000262026A436884690D6824F4E64444EA83
:1031000005248D6822F0200242EA05120D4DA842E6
:1031100002D00D4DA8420ED1CD6822F0800242EAC5
:1031200005124D6923F4406343EA85038D6922F05B
:10313000400243EA85034360846149688163026217
:1031400030BD0000000001400004014030B5026ABB
:1031500022F480720262036A4268C46923F4007335
:1031600024F073050C682C438D6843EA05230D4D4C
:10317000A84202D00C4DA8420ED1CD6823F40063C2
:1031800043EA05234D6922F4405242EA05128D6953
:1031900023F4806342EA05124260C4614968C16356
:1031A000036230BD000001400004014030B5026AF6
:1031B00022F480520262046A4268C3690D6823F4F3
:1031C000E64343EA05238D6824F4005444EA0534B9
:1031D000084DA84202D0084DA84204D14D6922F4FE
:1031E000804242EA85124260C36149680164046218
:1031F00030BD0000000001400004014010B5036A2A
:10320000046A24F001040462846924F0F00444EAAE
:10321000021423F00A020A438461026210BD10B551
:10322000036A23F0100303628369046A23F4704382
:1032300043EA023224F0A00343EA011182610162F1
:1032400010BD10B5806B0021C185C184FEF7A6FFBB
:1032500010BD0168CA6822F49072CA6001684A69A8
:1032600022F001024A61202180F83A10704710B51F
:1032700090F83A10222901D0022010BD8168B1F5E2
:10328000805F11D00169002901681FD0496801F0F1
:103290007F03816A4A1C82620B70C18D491E09043A
:1032A000090CC18518D026E00269816A002A0268EB
:1032B000526805D0D2B20A80816A491C8162ECE76B
:1032C000C2F308020A80816A891CF7E74A68816AAA
:1032D0004B1C83620A70E0E70168CA6822F49072AE
:1032E000CA6001684A6922F001024A61202180F81F
:1032F0003A10FFF78FF8002010BD00002DE9F041D3
:1033000004460068016921F44052E16811430161FB
:103310002168C86849F20C6290432369A268E56994
:103320001A4363692B431A430243CA602168486900
:1033300020F44072A06910434861E1696425B1F549
:10334000004F9748974A21684FF032083FD091428A
:1033500001D081427CD1FEF7C9FA00EBC00101EB3C
:10336000001061688900B0FBF1F6FEF7BFFA00EBD0
:10337000C00101EB001061688900B0FBF1F0B0FB07
:10338000F5F06FF01801484306EB800108EB0110DF
:10339000B0FBF5F000F0F006FEF7A8FA00EBC00174
:1033A00001EB001061688900B0FBF1F0B0FBF5F0B3
:1033B00006EB0016FEF79AFA00EBC00101EB0010D5
:1033C00061688900B0FBF1F7FEF790FAD2E0914214
:1033D00001D081423DD1FEF789FA00EBC00101EB3B
:1033E000001061684900B0FBF1F0B0FBF5F0060198
:1033F000FEF77CFA00EBC00101EB001061684900A8
:10340000B0FBF1F7FEF772FA00EBC00101EB001020
:1034100061684900B0FBF1F0B0FBF5F06FF0180106
:10342000484307EB800108EBC100B0FBF5F000F06A
:10343000F80006EB4006FEF759FA00EBC00101EB7D
:10344000001061684900B0FBF1F7FEF74FFA3CE06D
:1034500055E0FEF733FA00EBC00101EB00106168A4
:103460004900B0FBF1F0B0FBF5F00601FEF726FADB
:1034700000EBC00101EB001061684900B0FBF1F7FF
:10348000FEF71CFA00EBC00101EB00106168490077
:10349000B0FBF1F0B0FBF5F06FF01801484307EB1B
:1034A000800108EBC100B0FBF5F000F0F80006EB7E
:1034B0004006FEF703FA00EBC00101EB0010616863
:1034C0004900B0FBF1F7FEF7F9F900EBC00101EBA1
:1034D000001061684900B0FBF1F0B0FBF5F06FF04F
:1034E0001801484307EB800108EBC100B0FBF5F081
:1034F00000F00700216830448860BDE8F081FEF7E5
:10350000DDF900EBC00101EB001061688900B0FB40
:10351000F1F6FEF7D3F900EBC00101EB0010616892
:103520008900B0FBF1F0B0FBF5F06FF018014843F3
:1035300006EB800108EB0110B0FBF5F000F0F0069F
:10354000FEF7BCF900EBC00101EB001061688900D7
:10355000B0FBF1F0B0FBF5F006EB0016FEF7AEF9AC
:1035600000EBC00101EB001061688900B0FBF1F7CE
:10357000FEF7A4F900EBC00101EB001061688900BF
:10358000B0FBF1F0B0FBF5F06FF01801484307EB2A
:10359000800108EB0110B0FBF5F000F00F00A9E787
:1035A000001401400010014090F83910212901D089
:1035B000022070478168B1F5805F016A0BD04A1C18
:1035C0000262026809785160C18C491E0904090C25
:1035D000C1840ED017E009880268C1F30801516068
:1035E00001690029016A02D0491C0162ECE7891CCB
:1035F000FBE70168CA6822F08002CA600068C168FF
:1036000041F04001C160002070472DE9F04198462B
:1036100017460E460446069D1DE0681C1BD02DB1C2
:10362000FDF79CFFA0EB0800A84214D92068C168F0
:1036300021F4D071C1602068416921F0010141612C
:10364000202084F8390084F83A00002084F83800FB
:103650000320BDE8F0812068006836EA000004D04D
:103660000020B842D9D00020F3E70120F9E700009C
:1036700010B50848FEF798FD0648FEF790FD202893
:10368000FAD1012204490348FEF7A0FE0028F8D130
:1036900010BD0000040400208C00002010B5084874
:1036A000FEF782FD0648FEF77AFD2028FAD10122B6
:1036B00004490348FEF78AFE0028F8D110BD000037
:1036C000440400208D00002010B50848FEF76CFD72
:1036D0000648FEF764FD2028FAD101220449034878
:1036E000FEF774FE0028F8D110BD0000FC02002097
:1036F0008E0000202DE9F0411A4E3088800000F045
:103700009DFA194F194D002438606C6008E01820AC
:1037100000F094FA3A68696842F82100491C69602F
:10372000318868688842F2DB6C60114AA86811E051
:10373000002004EB440100BFD7F800C000EB4103B8
:1037400013445CF824C01B7A4CF82030401C062837
:10375000F2DB641C31888C42EADBC5E90140BDE83C
:10376000F08100004C0000208800002008000020AC
:103770006C0100202DE9F041164D2888012827D141
:10378000154E164816493478047000230B80154AEC
:10379000154F05E017F800C002F800C0401C088073
:1037A0000888A042F6D92B8033809079D1793038BF
:1037B00000EB80006FF02F0202EB4000084481B262
:1037C0000A4801800AA000F06BF80A49032008703B
:1037D000BDE8F081400000203E0000208F00002066
:1037E000080000206C010020340200204C00002062
:1037F000256400003C000020FEE700002DE9F041B8
:1038000021A19820FDF731F9062264212048FCF718
:1038100011FD40F23E3148431E49800AC83008601D
:1038200042F21071B0FBF1F21B4C1C4E4FF07A4784
:103830002270B0FBF1F201FB12014FF47A72B1FB7E
:10384000F2F1B0FBF2F302FB13036422B3FBF2F3D9
:1038500061700A21A170E370B0FBF2F302FB130068
:10386000B0FBF1F020710B2060710025605D315CD0
:103870003846FEF7FDFE032000F0E6F86D1C062D2D
:10388000F4DBBDE8F0810000B5E7D1B93A000000F3
:10389000E00500205000002090000020540000208F
:1038A0000FB4054B10B503A9044A029800F018F8AC
:1038B00010BC5DF814FB0000993A00089800002045
:1038C00002E008C8121F08C1002AFAD170477047E9
:1038D000002001E001C1121F002AFBD17047000047
:1038E0002DE9FF4F89B09B460446002506E02528B8
:1038F0000BD05A460B999047641C6D1C2078002809
:10390000F5D10DB02846BDE8F08F0027B84601225A
:10391000474900E0074314F8013F203B02FA03F057
:103920000842F7D120782E2819D114F8010F47F05A
:1039300004072A280ED06FF02F022078A0F1300162
:1039400009290CD808EB880102EB410100EB0108C2
:10395000641CF2E70A98641C50F8048B0A902078E3
:103960000028CED0642808D0692806D075281ED03B
:103970005A460B9990476D1C58E00A994FF00A0976
:1039800001C90A91002802DA40422D2102E03905DE
:1039900004D52B218DF82010012103E0F90704D074
:1039A0002021F7E78A4608AE0DE00021FAE70A99E0
:1039B0004FF00A0901C90A91F7E74946FCF712FCE2
:1039C000303106F8011D0028F7D1ADEB060000F1FB
:1039D0002009780701D44FF00108C84502DDA8EBA3
:1039E000090000E000208046002706E008A85A46AB
:1039F000C05D0B9990476D1C7F1C5745F6DB04E0BA
:103A000030205A460B9990476D1CB8F10001A8F17F
:103A10000108F5DC05E016F8010B5A460B999047B2
:103A20006D1CB9F10001A9F10109F4DC641C65E722
:103A30000928010010B504460420FEF719F90148D1
:103A4000046010BD0400002070B5054600244FF44A
:103A50007A7603E0304600F005F8641CAC42F9D3F6
:103A600070BD000070B54FF0E0240022656909497F
:103A7000A36909684843A1699942FCD002D2A3EB2B
:103A8000010302E0A5EB010633441A440B468242CF
:103A9000F1D370BD0400002013B54FF6FF7301226F
:103AA00069460248FEF73CFD00981CBDFC02002060
:103AB00010B5002821D0114B0022001F196803E027
:103AC000814203D80A4649680029F9D152B11368E6
:103AD000841A9C4204D1006818441060104602E029
:103AE000506000E0186039B102680B1A934203D1AC
:103AF0000B681A4402604968416010BD9C000020B8
:103B000070B50B4C00200B4D0B4EE06007E02968B0
:103B100051F82000FFF7CCFFE068401CE0603188DE
:103B20008842F4DB2868BDE87040FFF7C1BF0000A1
:103B300008000020880000204C000020FDF71CFD3C
:103B4000FFF7A4F9B420FFF775FFFEF709FEFEF7B3
:103B5000F9FDFEF7DDFFFEF7FDFFFEF74FFFFEF775
:103B60007BFFFEF7A7FFFEF7C5FDFEF75DFDFEF745
:103B700037FDFEF7F3FE2E4D2E4CA5F1C8070026AB
:103B800020780A28FCD2DFE800F01B0605384346FF
:103B90004950354CF4E728A0FFF782FE4FF47A70C5
:103BA000FFF752FFA0880128EAD128796F2804D1B5
:103BB00068796B2801D108201AE0A6806680DFE7CB
:103BC000A0880128DCD12879662808D062280BD08B
:103BD0007228F2D168796B28EFD1072008E0687964
:103BE0007728EAD1042003E068796B28E5D1062024
:103BF0002070E2E7FFF7BEFDC2E7FFF77BFD3879F3
:103C00007728BDD178797428BAD105202070B7E71C
:103C1000FEF7C4FFB4E7FFF71FF8B1E7FFF75CF862
:103C2000AEE7FFF721F92670AAE7FFF7B3F8A7E799
:103C3000340200203C00002031000000F0B50B30C1
:103C4000154D20F007010024144A0FE003688B4251
:103C50000BD38B4205D95E1A43184768C3E9006746
:103C600000E04368136002C004E0021D10680028F1
:103C7000ECD12046002802D1286808B10020F0BD10
:103C8000064A07481060074A121A22F00702C0E9E4
:103C9000002401202860D7E7A00000209C0000201D
:103CA000AC060020A808002000061016000610161A
:103CB00000000000010203040102030406070809D2
:103CC000E03C000800000020A4000000C03800080C
:103CD000843D0008A4000020040C0000D038000837
:103CE0000024F400000000000000000000000000BC
:103CF00000000000000000000000000000000000C4
:103D000000000000000000000000000000000000B3
:103D100000000000000000000000000001000000A2
:103D20000000000000000000000000000000000093
:103D300000000000303132333435363738392E76D2
:103D4000002A54534B2A4C4F4323726D23626D2338
:103D5000AA09200000000003000255AA021055AA7B
:103D600002125501030000000000000000000000E6
:103D70000000000000000000000000000000000043
:043D8000000000003F
:04000005080001AD41
:00000001FF
