:020000040800F2
:10000000A80D0020C1010008F1400008AD30000833
:10001000293D0008E10A0008114E00080000000018
:100020000000000000000000000000002F41000858
:100030000F0C0008000000002D410008534200088A
:10004000DB010008DB010008DB010008DB01000820
:10005000DB010008DB010008DB010008DB01000810
:10006000DB010008DB010008DB010008DB01000800
:10007000DB010008DB010008DB010008DB010008F0
:10008000DB010008DB0100084D030008DB0100086C
:10009000DB010008DB010008DB010008DB010008D0
:1000A000DB010008DB010008DB010008DB010008C0
:1000B000DB01000895430008DB010008DB010008B4
:1000C000DB010008DB010008DB010008DB010008A0
:1000D000DB010008194C0008654C0008BD4C000805
:1000E000DB010008DB010008DB010008DB01000880
:1000F000DB010008DB010008DB010008DB01000870
:10010000DB010008DB010008DB010008DB0100085F
:10011000DB010008DB010008DB010008DB0100084F
:10012000E50A0008DB010008DB010008DB0100082C
:10013000DB010008DB010008DB010008DB0100082F
:10014000DB010008DB010008DB010008DB0100081F
:10015000DB010008DB010008DB010008DB0100080F
:10016000DB010008DB010008DB010008DB010008FF
:10017000DB010008DB010008DB01000800000000D3
:10018000DB010008DB010008DB010008DB010008DF
:10019000DB010008DB010008DB010008DB010008CF
:1001A000DB010008DB010008DB010008DFF80CD0F0
:1001B00000F018F800480047E5510008A80D00209D
:1001C0000648804706480047FEE7FEE7FEE7FEE7F1
:1001D000FEE7FEE7FEE7FEE7FEE7FEE73143000845
:1001E000AD010008064C074D06E0E06840F0010351
:1001F00094E8070098471034AC42F6D3FFF7DAFFD3
:10020000E0530008005400082DE9FC5F81460D46CC
:1002100090464FF0000B002400260020009001952E
:10022000019D680005F072F8074600BF05E039F847
:10023000140027F81400601C84B2AC42F7DB0024E1
:100240001BE0002614E037F81610701C37F8100079
:1002500081420BDA37F816000090701C37F8100056
:1002600027F81600711C009827F81100701C86B240
:10027000681EB042E7DC601C84B2681EA042E0DC6D
:10028000444604E039F814008344601C84B2A5EBB2
:100290000800A042F6DCA5EB4800BBFBF0F01FFA1B
:1002A00080FACDF800A03846DDF800A004F05AFF2F
:1002B0005046BDE8FC9F70B50546AC6B206C00F065
:1002C000500050BB206C40F40070206420688068AF
:1002D00000F04050E8B9A069D8B92068C06A00F4BD
:1002E000700020B12068806800F4806088B92068C0
:1002F000406820F0200021684860206C20F4807065
:100300002064206C00F4805018B9206C40F001008B
:100310002064204600F040FF03E0A06BC16C28463B
:10032000884770BD70B50546AC6B40202064606C9A
:1003300040F004006064204600F030FF70BD70B5EE
:100340000446A56B284600F028FF70BD10B5024892
:1003500000F025FF10BD0000340600205A4909684E
:1003600021F44031594AC2F804131146D1F804135C
:1003700042681143544A11600168496821F4807150
:100380000268516001684A68016942EA0121026815
:1003900051600168496821F040710268516001684C
:1003A000496882681143026851600168896821F4D4
:1003B00000610268916001688968C268114302683F
:1003C0009160434A816A914218D00168896821F09E
:1003D00070610268916001688968826A11430268ED
:1003E00091600168896821F040510268916001685C
:1003F0008968C26A1143026891600BE001688968EC
:1004000021F07061026891600168896821F04051B3
:10041000026891600168896821F0020102689160B8
:1004200001688A68816942EA410102689160016A53
:10043000D1B10168496841F4006102685160016806
:10044000496821F460410268516001684A68416A64
:10045000491E4FF4604393FAA3F3B3FA83F3994030
:100460000A4301684A6005E00168496821F40061B7
:10047000026851600168C96A21F470010268D162A2
:100480000168CA6A818B491E42EA01510268D16241
:100490000168896821F400710268916001688A68C6
:1004A000016B42EA4121026891600168896821F488
:1004B00080610268916001688A68416942EA81212D
:1004C0000268916070470000042301400020014051
:1004D0000100000F70B506460C46154608E0304690
:1004E000721C96B200F007F804F8010B681E85B282
:1004F000002DF4D170BD70B50446002602F0ACFFAB
:100500002546E11704EB11610912A02202EB41011B
:10051000C8B202F035FF03F039F8E11704EB1161BE
:100520000912A4EB0121C8B202F02AFF03F02EF851
:1005300002F092FFA12002F023FF03F027F8002031
:1005400002F0B2FE064602F0D3FF304670BD000056
:1005500010B54FF480419E4801F00EFB28B14FF4D6
:1005600000419B4801F008FB08BB9A480068401C0A
:100570009849086008460068B0F5FA6F16DD4FF438
:100580008041934801F0F8FA30B14FF400419048AF
:1005900001F0F2FA002809D14FF4E671084603F0A1
:1005A000FFFD012251038A4801F0EEFA0EE100201E
:1005B000884908600121884801F0DEFA012873D1DA
:1005C0000221854801F0D8FA01286DD1082182481E
:1005D00001F0D2FA012867D110217F4801F0CCFA4E
:1005E000012861D181037C4801F0C6FA01285BD162
:1005F0007A480068401C79490860084600684FF650
:10060000E851884250DD0121734801F0B5FA012814
:100610004AD10221704801F0AFFA012844D10821E3
:100620006D4801F0A9FAE0BB10216B4801F0A4FA73
:10063000012839D18103684801F09EFA012833D19D
:1006400067480068401C66490860084600684FF625
:10065000E851884228DD01215F4801F08DFA012828
:1006600022D102215C4801F087FA01281CD108211F
:10067000594801F081FAA0B91021574801F07CFADD
:10068000012811D18103544801F076FA01280BD1D9
:100690004FF4E671084603F083FD012251034C48F4
:1006A00000E001E001F070FA01214B4801F064FA2A
:1006B00001281BD10221484801F05EFA012815D11A
:1006C0000821454801F058FA80B91021424801F04C
:1006D00053FA01280AD181033F4801F04DFA01285D
:1006E00004D11421084603F05BFD6FE001213A4874
:1006F00001F042FA012815D10221374801F03CFAF5
:1007000080B91021344801F037FA01280AD1810359
:10071000314801F031FA012804D114211E2003F0E0
:100720003FFD53E001212C4801F026FA012816D1A3
:100730000221294801F020FA012810D11021264871
:1007400001F01AFA58B94FF48041234801F014FA25
:10075000012804D11E21142003F022FD36E00121DE
:100760001D4801F009FAB0B902211B4801F004FA52
:10077000012810D11021184801F0FEF901280AD1F2
:100780008103154801F0F8F9012804D1142128202B
:1007900003F006FD1AE001210F4801F0EDF90128F0
:1007A00014D102210C4801F0E7F901280ED11021E3
:1007B000094801F0E1F9012808D18103064801F058
:1007C000DBF918B92821142003F0EAFC10BD000061
:1007D0000000024008000020000402400C0000203D
:1007E0001000002070B50024002513480088C0F3D5
:1007F0000D0500BF04E01148005D11490855641C57
:10080000AC42F8DD4FF47A7304220E490E4802F030
:10081000E1FB4FF47A7304220949091D0A4802F0EA
:10082000D9FB4FF47A7301220849074802F0D2FB42
:1008300000F088FA70BD00002E0000203003002078
:10084000D8000020890000204005002096000020EC
:1008500010B54FF480419C4801F08EF928B14FF457
:100860000041994801F088F908BB98480068401C8D
:100870009649086008460068B0F5FA6F16DD4FF437
:100880008041914801F078F930B14FF400418E4831
:1008900001F072F9002809D14FF4E671084603F01F
:1008A0007FFC01225103884801F06EF90AE1002023
:1008B000864908600121864801F05EF9012870D15F
:1008C0000221834801F058F901286AD108218048A3
:1008D00001F052F9012864D110217D4801F04CF952
:1008E00001285ED181037A4801F046F9012858D1E8
:1008F00078480068401C77490860084600684FF651
:10090000E85188424DDD0121714801F035F9012897
:1009100047D102216E4801F02FF9012841D1082169
:100920006B4801F029F9E0BB1021694801F024F976
:10093000012836D18103664801F01EF9012830D123
:1009400065480068401C64490860084600684FF626
:10095000E851884225DD01215D4801F00DF90128AB
:100960001FD102215A4801F007F9012819D10821A5
:10097000574801F001F9A0B91021554801F0FCF8E1
:1009800001280ED18103524801F0F6F8012808D160
:100990000021084603F004FC012251034A4801F0FB
:1009A000F3F804214D4801F0E7F801281BD1082194
:1009B0004A4801F0E1F8012815D11021474801F01B
:1009C000DBF880B92021454801F0D6F801280AD18A
:1009D0004021424801F0D0F8012804D114210846F2
:1009E00003F0DEFB6EE004213C4801F0C5F801286D
:1009F00015D10821394801F0BFF880B920213748C6
:100A000001F0BAF801280AD14021344801F0B4F8C5
:100A1000012804D114211E2003F0C2FB52E004215E
:100A20002E4801F0A9F8012815D108212B4801F022
:100A3000A3F801280FD12021284801F09DF850B9D2
:100A40004021264801F098F8012804D11E211420E5
:100A500003F0A6FB36E00421204801F08DF8B0B980
:100A600008211E4801F088F8012810D120211B48D8
:100A700001F082F801280AD14021184801F07CF8E1
:100A8000012804D11421282003F08AFB1AE0042154
:100A9000124801F071F8012814D108210F4801F023
:100AA0006BF801280ED120210C4801F065F80128CF
:100AB00008D14021094801F05FF818B92821142015
:100AC00003F06EFB10BD0000000002401400002087
:100AD00000040240180000201C000020001002400A
:100AE00000BFFEE710B5024800F050FD10BD000049
:100AF0007C0600200146087810381823B0FBF3F27A
:100B00000848805CC865032A05D908686FF30900A6
:100B1000001D886503E008686FF309008865886D2B
:100B200070470000C6530008014600208A6A8B699E
:100B300003BB32B1012A0CD0022A10D0032A17D1EC
:100B400015E0CB6A03F08073B3F1807F00D1012000
:100B50000FE0CB6AB3F1C07F00D1012009E0CB6A7E
:100B600003F08073B3F1807F00D1012001E000E049
:100B700000BF35E08B69B3F5005F1BD132B1012AAC
:100B800006D0022A0CD0032A12D10BE0012010E07B
:100B9000CB6A03F08073B3F1807F00D1012008E0BD
:100BA000012006E0CB6AB3F1C07F00D1012000E054
:100BB00000BF15E032B1012A05D0022A04D0032A71
:100BC0000CD103E000BF00BF012008E0CB6A03F0B6
:100BD0008073B3F1807F00D1012000E000BF00BF2F
:100BE000704730B50468246824F4802405682C60BC
:100BF000046863608468402C04D10468A2600468BF
:100C0000E16003E00468A1600468E26030BD704701
:100C100070B505460C4629464FF0784002F056FD67
:100C2000032004F061FA08E021784FF07A4002F0E6
:100C30004DFD641C032004F057FA20780028F3D1FE
:100C400070BD000010B5032202490020FFF742FCEE
:100C500010BD0000A600002000BFFEE710B5304820
:100C60000088B0F5487F0EDD4FF47A7304222D49D9
:100C70002D4802F0AFF901222C492B4802F0B6F8BA
:100C80000020274908802A480088012847D12948A0
:100C90004078032807D127488078102803D12548B9
:100CA000C078012836D023484078032813D1214842
:100CB000807812280FD11F48C07860B94FF47A733A
:100CC0000B221D49184802F085F9012217491648E0
:100CD00002F08CF81EE017484078152802D1FFF783
:100CE00081FD17E013484078032807D11148807828
:100CF000202803D10F48C07880280BD04FF47A7396
:100D000004220E49084802F065F901220749064805
:100D100002F06CF80020064908800949088010BDDF
:100D2000C6000020B8000020000500203000002090
:100D30004600002030030020AD000020BC00002051
:100D40002E00002010B5002400BFCEE06A480068E5
:100D500050F82400006869490979884231D1664811
:100D6000006850F824004068644949798842F5D108
:100D70006148006850F82400806860498979884299
:100D8000ECD15D48006850F82400C0685B49C9791F
:100D90008842E3D15848006850F824000069702860
:100DA00010D15548006850F8240040696C2809D1DA
:100DB00053A004F097F808205349087000205349C5
:100DC000087091E04C48006850F8240000697028D1
:100DD00010D14948006850F824004069722809D1B0
:100DE0004BA004F07FF808204749087001204749CC
:100DF000087079E04048006850F8240000697028C5
:100E00000DD13D48006850F824004069662806D19D
:100E100041A004F067F808203B49087064E03648B8
:100E2000006850F82400006970280DD1324800682D
:100E300050F824004069732806D139A004F052F814
:100E40000520324908704FE02B48006850F8240014
:100E5000006970280DD12848006850F824004069C6
:100E6000702806D1082028490870012027490870F9
:100E70003AE02148006850F8240000696E280DD13E
:100E80001D48006850F8240040696C2806D126A04F
:100E900004F028F800201D49087025E01648006875
:100EA00050F8240000696E280DD11348006850F8EE
:100EB00024004069722806D11DA004F013F8012017
:100EC0001249087010E00C48006850F824000069CE
:100ED0006E2809D10848006850F824004069662847
:100EE00002D115A003F0FEFF641C1548008884425F
:100EF000FFF62CAF10BD00002800002030030020BA
:100F0000706C0D0A00000000C8000020C90000201D
:100F100070720D0A0000000070660D0A00000000EB
:100F200070730D0A000000006E6C0D0A00000000D6
:100F30006E720D0A000000006E660D0A00000000CF
:100F40005400002070B505460E463146284600F094
:100F50000FF80446B4F5967F01DA022070BD40F226
:100F6000DC50844201DA0120F8E70020F6E70000B7
:100F700070B505460C461D4850F8240068B9B422E7
:100F80000221284602F087FB0120184941F824007D
:100F90000020174921F8140024E0154830F8140007
:100FA00064281FDD0221284602F052FB114921F876
:100FB0001400084630F814004FF6FF7101EA0020D3
:100FC0000C4921F814000321284602F041FB09498D
:100FD00031F814100844074921F81400002003498F
:100FE00041F82400034830F8140070BD5C00002074
:100FF00038000020560000207047000018B5024657
:101000000020009000BF92F83C00012801D102208E
:1010100018BD012082F83C0000BF0868092816D9D5
:101020001068C0680B780A3B03EB43040723A34016
:1010300098431368D8600B780A3B03EB4303886836
:1010400098401368DB6818431368D86013E0106891
:1010500000690B7803EB43040723A340984313680C
:1010600018610B7803EB43038868984013681B6989
:101070001843136818614868072817D21068406B36
:101080000B795B1E03EB83041F23A3409843136873
:101090005863088880B20B795B1E03EB830398408A
:1010A00013685B6B18431368586331E048680D2878
:1010B00017D21068006B0B79DB1F03EB83041F232F
:1010C000A340984313681863088880B20B79DB1F2C
:1010D00003EB8303984013681B6B18431368186372
:1010E00016E01068C06A0B790D3B03EB83041F23E5
:1010F000A34098431368D862088880B20B790D3BEF
:1011000003EB830398401368DB6A18431368D862C3
:101110001C4B1068984208D10868122805D11A485B
:10112000006840F48000C3F80403164B106898422E
:1011300020D1164B0868984202D00868112819D1AE
:101140001148006840F400000F4B18600F4B08680E
:1011500098420FD10E4800680E4BB0FBF3F000EB45
:1011600080004000009002E00098401E009000982F
:101170000028F9D100BF002082F83C0000BF00BF6A
:1011800046E7000000200140042301401200001047
:101190000000002040420F0070477047704770B554
:1011A00004460025002620680068C0F3400520683A
:1011B0004068C0F3401695B38EB3206C00F0100069
:1011C00018B9206C40F4007020642068806800F03A
:1011D0004050E8B9A069D8B92068C06A00F470002E
:1011E00020B12068806800F4806088B92068406879
:1011F00020F0200021684860206C20F4807020647A
:10120000206C00F4805018B9206C40F0010020647C
:101210002046FFF7C1FF6FF01200216808602068C8
:101220000068C0F3800520684068C0F3C016E5B3CD
:10123000DEB3206C00F0100018B9206C40F40050B0
:1012400020642068806800F4401038BB2068806B00
:1012500000F4401020B12068806800F48060E8B994
:101260002068406800F48060C0B92068806800F0A1
:10127000405098B9A06988B92068406820F0800083
:1012800021684860206C20F480502064206C00F4B9
:10129000807018B9206C40F0010020642046FFF7F0
:1012A000ABFE6FF00C00216808602068006800F059
:1012B000010520684068C0F3801685B17EB12068C2
:1012C000006800F0010050B1206C40F480302064D0
:1012D000204600F053F86FF0010021680860206894
:1012E0000068C0F3401520684068C0F380667DB197
:1012F00076B1606C40F0020060646FF020002168FD
:1013000008602046FFF74AFF6FF020002168086060
:1013100070BD000070B5044600250CB9012070BDF9
:101320001549A06A884200D000BF206C30B9002067
:10133000606484F83C00204600F022F8206C00F045
:10134000100088B9206C20F4885040F0020020641E
:101350002046FFF703F800206064206C20F00200B4
:1013600040F00100206400E0012500BF002084F867
:101370003C0000BF2846D2E70100000F7047000084
:1013800010B586B004462049206888423AD100BF93
:10139000002000901D48006840F480701B490860E0
:1013A0000846006800F48070009000BF00BF012074
:1013B0000190032002900020039001A9144800F03E
:1013C000CDFA1448144908600020486000211248F2
:1013D0008160C1604FF48061016149004161890011
:1013E00081610021C1614FF400310162002141623D
:1013F00000F0F0F908B1FFF72FFC00BF0648A0632A
:10140000846300BF06B010BD002001404438024094
:1014100000080240106402407C060020F8B5044633
:101420000D4616460020009000BF94F83C000128AD
:1014300001D10220F8BD012084F83C0000BF2068E3
:10144000806800F00100A0B92068806840F00100C9
:10145000216888603C4800683C49B0FBF1F000EB33
:101460004000009002E00098401E00900098002884
:10147000F9D12068806800F00100002862D0206C5B
:1014800040F20161884340F4807020642068406825
:1014900000F4806028B1206C20F4005040F48050AB
:1014A0002064206C00F4805020B1606C20F00600B5
:1014B000606401E00020606400BF002084F83C000C
:1014C00000BF2348A16BC8632248A16B086422486F
:1014D000A16BC8646FF02200216808602068406832
:1014E00040F08060216848602068806840F4807027
:1014F00021688860226802F14C0133462A46A06BBD
:1015000000F0DCF91548006800F01F0058B92068A9
:10151000806800F0405028B92068806840F0804022
:10152000216888600EE00E49206888420AD1206850
:10153000806800F0405028B92068806840F0804002
:1015400021688860002075E70000002040420F00FD
:10155000B70200083F0300082503000804230140E8
:1015600000200140014691F83500022803D0802078
:10157000486501207047052081F83500086800683B
:1015800020F001000A6810600020F3E7F8B5044677
:10159000002000908D4800684FF41651B0FBF1F721
:1015A000A56D2E6894F85C1008208840304098B1F2
:1015B0002068006800F0040070B12068006820F026
:1015C00004002168086094F85C1008208840A86036
:1015D000606D40F00100606594F85C107C488840C4
:1015E000304068B12068406900F0800040B194F854
:1015F0005C1077488840A860606D40F0020060652C
:1016000094F85C107248C01C8840304070B120686B
:10161000006800F0020048B194F85C106C48C01CEF
:101620008840A860606D40F00400606594F85C102C
:1016300010208840304078B32068006800F008002F
:1016400050B394F85C1010208840A86020680068AF
:1016500000F4802080B12068006800F4002028B9E0
:10166000206CC8B12046216C884715E0A06C98B169
:101670002046A16C88470FE02068006800F4807065
:1016800028B92068006820F0080021680860206CF4
:1016900010B12046216C884794F85C1020208840C7
:1016A0003040002865D02068006800F01000002855
:1016B0005FD094F85C1020208840A86094F8350032
:1016C000052828D12068006820F0160021680860ED
:1016D0002068406920F0800021684861206C08B9CA
:1016E000A06C28B12068006820F00800216808601C
:1016F00094F85C103F208840A86000BF002084F868
:10170000340000BF012084F83500206D10B1204660
:10171000216D8847F8BD2068006800F4802080B102
:101720002068006800F4002028B9606C10B12046E1
:10173000616C88471DE0E06BD8B12046E16B8847BB
:1017400017E02068006800F4807068B920680068BD
:1017500020F010002168086000BF002084F83400E9
:1017600000BF012084F83500E06B10B12046E16B2A
:101770008847606D38B3606D00F00100F0B105205E
:1017800084F835002068006820F0010021680860B6
:1017900000BF0098401C0090B84200D905E02068C6
:1017A000006800F001000028F3D100BF00BF002056
:1017B00084F8340000BF012084F83500E06C10B1DB
:1017C0002046E16C884700BFA4E70000000000202D
:1017D000010080002DE9F0410446002500F0DAF90F
:1017E000074614B90120BDE8F081606A00B100BF6E
:1017F00000BF002084F8340000BF022084F83500C8
:101800002068006820F00100216808600AE000F00C
:10181000C1F9C01B052805D920206065032084F884
:101820003500E0E72068006800F001000028EED1F4
:101830002068056820480540D4E901010843E168B3
:1018400008432169084361690843A1690843E169C4
:101850000843216A08430543606A042803D1D4E998
:101860000B0108430543206805602068456925F0A1
:101870000705606A0543606A04280BD1A06A054326
:101880002046FFF751F928B140206065012084F817
:101890003500A8E7206845612046FFF72BF906468A
:1018A00094F85C103F208840B06000206065012003
:1018B00084F83500002096E73F8010F02DE9F047CE
:1018C00004460D4616461F464FF00008D4F85890BF
:1018D00000BF94F83400012802D10220BDE8F0874F
:1018E000012084F8340000BF94F8350001282BD182
:1018F000022084F83500002060653B4632462946C8
:101900002046FFF76EF994F85C103F208840C9F834
:1019100008002068006840F0160021680860206810
:10192000406940F0800021684861206C28B120683F
:10193000006840F00800216808602068006840F0F6
:1019400001002168086006E000BF002084F8340030
:1019500000BF4FF002084046C0E70000F8B502465D
:101960000B460025002400200021E6E0012606FAAF
:1019700001F51E6806EA0504AC4273D15E68022ECA
:1019800002D05E68122E13D1CF0802F1200656F85D
:1019900027004E07F70E0F26BE40B0434F07FF0E3D
:1019A0001E69BE403043CF0802F1200646F82700EA
:1019B00010684F000326BE40B0431E7906F00306B0
:1019C0004F00BE40304310605E68012E08D05E6854
:1019D000022E05D05E68112E02D05E68122E13D141
:1019E00090684F000326BE40B0434F00DE68BE4003
:1019F00030439060506801268E40B0431E79C6F394
:101A000000168E4030435060D0684F000326BE4021
:101A1000B0434F009E68BE403043D0605E6806F021
:101A20008056B6F1805FA8D100BF00260096454ED3
:101A3000366846F48046434F3E603E46366806F4BC
:101A40008046009600BF00BF3F4E8F0856F8270023
:101A50008E07370F0F26BE40B0433C4EB24202D134
:101A600000262EE068E03A4EB24201D1012628E07D
:101A7000384EB24201D1022623E0374EB24201D1A4
:101A800003261EE0354EB24201D1042619E0344E41
:101A9000B24201D1052614E0324EB24201D10626EF
:101AA0000FE0314EB24201D107260AE02F4EB2427A
:101AB00001D1082605E02E4EB24201D1092600E0F0
:101AC0000A268F073F0FBE4030431F4E8F0846F84F
:101AD0002700284E3068A0435E6806F48036B6F5CD
:101AE000803F00D12043234E3060361D3068A04334
:101AF0005E6806F40036B6F5003F00D120431D4E67
:101B0000361D3060361D3068A0435E6806F48016CE
:101B1000B6F5801F00D12043164E08363060361DC2
:101B20003068A0435E6806F40016B6F5001F00D1C9
:101B30002043104E0C363060491C1029FFF416AFBC
:101B4000F8BD00004438024008380140000002405F
:101B50000004024000080240000C02400010024055
:101B60000014024000180240001C02400020024005
:101B700000240240003C0140024613690B400BB1B7
:101B8000012000E0002070470AB1816101E00B04F0
:101B90008361704701480068704700002000002002
:101BA00002480068401C014908607047200000207E
:101BB00010B50D48006840F400700B4908600846F5
:101BC000006840F4806008600846006840F4807057
:101BD0000860032000F094F8002000F007F800F0FF
:101BE00019F8002010BD0000003C024070B504460A
:101BF000074800684FF47A71B0FBF1F5284600F011
:101C00003CFC00222146501E00F03CF8002070BD34
:101C10000000002010B5032000F072F800221146E9
:101C20006FF00B0000F02EF8002211466FF00A0052
:101C300000F028F8002211466FF0090000F022F8A9
:101C400000221146501F00F01DF800221146101FFF
:101C500000F018F800221146901E00F013F8002240
:101C60001146501E00F00EF810BD00BF00F01F021C
:101C7000012191404209920002F1E022C2F80011D4
:101C800000BF70472DE9F05F80460D4616460027DD
:101C900002F030FA074639462A46334601F007007B
:101CA000C0F1070ABAF1040F02D94FF0040A01E0AB
:101CB000C0F1070AD14600F1040ABAF1070F02D2B7
:101CC0004FF0000A01E0A0F1030AD4464FF0010AE8
:101CD0000AFA09FAAAF1010A0AEA020A0AFA0CFA4D
:101CE0004FF0010B0BFA0CFBABF1010B0BEA030BF2
:101CF0004AEA0B042146404602F004FABDE8F09F90
:101D000000BF00F00702064B19684FF6FF031940A9
:101D1000044B0B4343EA0221014B196000BF70479B
:101D20000CED00E00000FA0538B5002400BF0020EB
:101D300000902348006840F0805021490860084620
:101D4000006800F08050009000BF00BF0120010437
:101D500091FAA1F1B1FA81F11A4A42F82100FFF794
:101D600019FF044607E0FFF715FF001BB0F57A7F67
:101D700001D9032038BD1448406800F48030B0F524
:101D8000803FF0D10120410491FAA1F1B1FA81F133
:101D90000C4A42F82100FFF7FDFE044607E0FFF77A
:101DA000F9FE001BB0F57A7F01D90320E2E706486F
:101DB000406800F40030B0F5003FF0D10020D9E7D2
:101DC0004038024000000E420070004070B50446EA
:101DD0000D4600266D48006800F00F00A84209D2A9
:101DE0006A490D700846006800F00F00A84201D053
:101DF000012070BD207800F00200022807D164485D
:101E0000006820F0F000A16808436149086020786C
:101E100000F00100002877D06068012807D15C48F5
:101E200008380068C0F34040B8B90120E1E76068B5
:101E3000022802D06068032807D155480838006896
:101E4000C0F3406048B90120D3E751480838006822
:101E5000C0F3400008B90120CBE74D48006820F0EE
:101E60000300616808434A490860FFF793FE06468D
:101E70006068012810D108E0FFF78CFE801B41F25A
:101E80008831884201D90320B3E74148006800F057
:101E90000C000428F0D137E06068022810D108E077
:101EA000FFF778FE801B41F28831884201D9032078
:101EB0009FE73748006800F00C000828F0D123E0C5
:101EC0006068032810D108E0FFF764FE801B41F230
:101ED0008831884201D903208BE72D48006800F043
:101EE0000C000C28F0D10FE008E0FFF753FE801B38
:101EF00041F28831884201D903207AE724480068FA
:101F000000F00C000028F0D12048006800F00F001D
:101F1000A84209D91D490D700846006800F00F005D
:101F2000A84201D0012064E7207800F004000428D2
:101F300007D11748006820F4E050E16808431449CD
:101F40000860207800F00800082808D110480068D0
:101F500020F46040216940EAC1000D49086000F0AA
:101F60004FF80B49096801F0F001F02292FAA2F251
:101F7000B2FA82F2D140074A515CC8400649086073
:101F80000020FFF733FE002033E70000003C024052
:101F900008380240CE5300080000002001480068C5
:101FA000704700000000002000B5FFF7F7FF074969
:101FB000096801F4E0514FF4E05292FAA2F2B2FA49
:101FC00082F2D140024A515CC84000BD083802404C
:101FD000CE53000800B5FFF7E1FF0749096801F497
:101FE00060414FF4604292FAA2F2B2FA82F2D1401A
:101FF000024A515CC84000BD08380240CE53000878
:1020000070B50021002200230020274C246804F032
:102010000C0424B1042C04D0082C41D103E0234843
:1020200040E023483EE0204C241F246804F03F0198
:102030001D4C241F246804F4800484B11C4CB4FBA0
:10204000F1F5194C241F246847F6C076344096FAFF
:10205000A6F6B6FA86F6F44005FB04F20FE0134C40
:10206000B4FBF1F5104C241F246847F6C0763440C9
:1020700096FAA6F6B6FA86F6F44005FB04F20A4C88
:10208000241F246804F440344FF4403595FAA5F534
:10209000B5FA85F5EC40641C6300B2FBF3F001E097
:1020A000024800BF00BF70BD083802400024F400A1
:1020B00000127A0038B504460025207800F00100AF
:1020C000002848D0DE48006800F00C0004280DD03D
:1020D000DB48006800F00C00082811D1D848001F28
:1020E000006800F48000B0F5800F09D1D4480838AA
:1020F0000068C0F3404070B3606860BB012038BD29
:102100002079CF49891F0870606890B1FFF742FDC0
:10211000054606E0FFF73EFD401B642801D9032079
:10212000EDE7C74808380068C0F340400028F1D008
:1021300011E0FFF72FFD054606E0FFF72BFD401BE2
:10214000642801D90320DAE7BD4808380068C0F3E5
:1021500040400028F1D1207800F00200022869D127
:10216000B748006800F00C0058B1B548006800F0AE
:102170000C00082821D1B248001F006800F480003C
:10218000D8B9AF4808380068C0F3400020B1E06813
:10219000012801D00120B2E7A9480838006820F0E2
:1021A000F800F82292FAA2F2B2FA82F22169914082
:1021B0000843A349083908603CE0E06828B30120DF
:1021C000A0490860FFF7E6FC054606E0FFF7E2FCE1
:1021D000401B022801D9032091E79948083800687C
:1021E000C0F340000028F1D095480838006820F07E
:1021F000F800F82292FAA2F2B2FA82F22169914032
:1022000008438F490839086014E000208D490860B0
:10221000FFF7C0FC054606E0FFF7BCFC401B0228A8
:1022200001D903206BE7864808380068C0F34000F6
:102230000028F1D1207800F0080008282CD160692E
:10224000A8B1012080490860FFF7A4FC054606E01C
:10225000FFF7A0FC401B022801D903204FE7784874
:102260006C300068C0F340000028F1D014E000207A
:1022700075490860FFF78EFC054606E0FFF78AFC0B
:10228000401B022801D9032039E76D486C300068F3
:10229000C0F340000028F1D1207800F004000428A9
:1022A00057D100BF0020009065483830006840F0EA
:1022B00080506349383108600846006800F080505B
:1022C000009000BF00BF6148006840F480705F4923
:1022D0000860FFF75FFC054606E0FFF75BFC401B6C
:1022E000022801D903200AE75848006800F48070EA
:1022F0000028F2D0207A524968310870A068A0B155
:10230000FFF748FC054608E0FFF744FC401B41F29C
:102310008831884201D90320F1E6494868300068D5
:10232000C0F340000028EFD013E0FFF733FC054670
:1023300008E0FFF72FFC401B41F28831884201D9A9
:102340000320DCE63E4868300068C0F34000002807
:10235000EFD1A069F0B33A48006800F00C000828FB
:1023600069D0A069022850D1002036490866FFF7DD
:1023700011FC054606E0FFF70DFC401B022801D9C1
:102380000320BCE62E4808380068C0F340600028EF
:10239000F1D1D4E90701084347F6C07292FAA2F2DC
:1023A000B2FA82F2616A914008430122A16AC2EB4B
:1023B00051014FF4403292FAA2F2B2FA82F2914005
:1023C00008434FF0706292FAA2F2B2FA82F2E16A26
:1023D000914000E031E008431949091F08600120DD
:1023E00018490866FFF7D6FB054606E0FFF7D2FB63
:1023F000401B022801D9032081E6114808380068F3
:10240000C0F340600028F1D017E000200D490866B5
:10241000FFF7C0FB054606E0FFF7BCFB401B0228A8
:1024200001D903206BE6064808380068C0F3406015
:102430000028F1D101E0012061E600205FE6000004
:102440000838024000004742800E474200700040BA
:10245000042808D14FF0E021096941F004014FF050
:10246000E022116107E04FF0E021096921F0040149
:102470004FF0E02211617047704770B50446254661
:10248000681EB0F1807F01D301200FE0681E4FF07D
:10249000E02148610F214FF0FF3001F033FE0020B2
:1024A0004FF0E021886107200861002070BD10B561
:1024B000FFF7E2FF10BD70477047024600BF92F879
:1024C0003800012801D102207047012082F838002D
:1024D00000BF022082F839001068406820F07000C8
:1024E00013685860106840680B6818431368586098
:1024F0001068806820F08000136898601068806819
:102500004B68184313689860012082F8390000BFB7
:10251000002082F8380000BF00BFD5E710B50446A0
:102520000CB9012010BD94F8390028B9002084F8B6
:102530003800204600F00CF8022084F83900211DF4
:10254000206801F02FFF012084F839000020E9E71E
:1025500008B51E4A016891420FD100BF00210091C9
:102560001B49096841F00201194A116011460968C6
:1025700001F00201009100BF27E0164A0168914274
:102580000FD100BF002100911149096841F080017D
:102590000F4A11601146096801F08001009100BFE7
:1025A00013E00D4A016891420FD100BF0021009154
:1025B0000749096841F48071054A116011460968AC
:1025C00001F48071009100BF00BF08BD000400400D
:1025D00040380240001C00400020004001460868CE
:1025E000C06840F001000A68D0600868006840F0E8
:1025F00001000A681060002070472DE9F041044690
:102600000D46002600BF94F83800012802D10220B0
:10261000BDE8F081012084F8380000BF022084F872
:1026200039002068866826F0770626F47F46206801
:102630008660286850283BD00CDC202860D004DC61
:10264000002853D0102865D155E030285DD04028AF
:1026500060D141E0602835D070280DD0B0F5805FA2
:1026600003D0B0F5005F55D115E02068806820F0F8
:102670000700216888604EE0D5E902136A68206887
:1026800001F010FF2068866826F0770646F077068E
:10269000206886603FE0D5E902136A68206801F08F
:1026A00001FF2068806840F480402168886032E043
:1026B000EA686968206801F0EBFF5021206801F0AA
:1026C000FDFE28E0EA686968206801F0F6FF6021F5
:1026D000206801F0F3FE1EE0EA686968206801F0F6
:1026E000D7FF4021206801F0E9FE14E000212068B6
:1026F00001F0E4FE0FE01021206801F0DFFE0AE0A7
:102700002021206801F0DAFE05E03021206801F088
:10271000D5FE00E000BF00BF012084F8390000BFF3
:10272000002084F8380000BF00BF71E7704710B583
:10273000044620680069C0F34000D8B12068C06832
:10274000C0F34000B0B16FF00200216808610120C1
:1027500020762068806900F0030018B12046FFF75A
:10276000E5FF05E0204600F0DBF8204600F078F9B0
:102770000020207620680069C0F38000D8B120686E
:10278000C068C0F38000B0B16FF004002168086138
:10279000022020762068806900F4407018B120463D
:1027A000FFF7C4FF05E0204600F0BAF8204600F02D
:1027B00057F90020207620680069C0F3C000D8B126
:1027C0002068C068C0F3C000B0B16FF00800216895
:1027D0000861042020762068C06900F0030018B169
:1027E0002046FFF7A3FF05E0204600F099F82046B9
:1027F00000F036F90020207620680069C0F3001050
:10280000D8B12068C068C0F30010B0B16FF01000FC
:1028100021680861082020762068C06900F44070B3
:1028200018B12046FFF782FF05E0204600F078F857
:10283000204600F015F9002020762068006900F09D
:10284000010058B12068C06800F0010030B16FF09D
:10285000010021680861204600F02AF9206800691B
:10286000C0F3C01058B12068C068C0F3C01030B1C8
:102870006FF08000216808612046FFF71CFE206889
:102880000069C0F3801058B12068C068C0F38010A0
:1028900030B16FF0400021680861204600F02CF94B
:1028A00020680069C0F3401058B12068C068C0F3C8
:1028B000401030B16FF02000216808612046FFF71A
:1028C000FBFD10BD10B586B0044612492068884251
:1028D0000DD18015019002200290002003900490F9
:1028E0000920059001A90C48FFF738F810E00B49C2
:1028F000206888420CD140150190022002900020EF
:10290000039004900920059001A90348FFF726F8D9
:1029100006B010BD001C0040001402400020004022
:10292000704770B504460D46164600BF94F838004F
:10293000012801D1022070BD012084F8380000BFB9
:10294000022084F8390036B1042E1BD0082E31D075
:102950000C2E5ED145E02946206801F0B9FD2068C3
:10296000806940F00800216888612068806920F053
:10297000040021688861206880692969084321680A
:10298000886147E02946206801F0DAFD2068806907
:1029900040F40060216888612068806920F48060CC
:1029A0002168886120688069296940EA01202168DE
:1029B00088612FE02946206801F0FEFD2068C0698B
:1029C00040F008002168C8612068C06920F0040058
:1029D0002168C8612068C069296908432168C86105
:1029E00018E02946206801F023FE2068C06940F401
:1029F00000602168C8612068C06920F48060216897
:102A0000C8612068C069296940EA01202168C8615D
:102A100000E000BF00BF012084F8390000BF0020A3
:102A200084F8380000BF00BF85E710B504460CB934
:102A3000012010BD94F8390028B9002084F838002E
:102A4000204600F00CF8022084F83900211D20688F
:102A500001F0A8FC012084F839000020E9E7704764
:102A60007047000030B504460D4601222946206813
:102A700001F00AFD0C492068884203D00B49206808
:102A8000884201D1012000E0002028B12068406C7C
:102A900040F40040216848642068006840F001006C
:102AA00021680860002030BD0000014000040140A2
:102AB00001460D48814215D1002007E00B4A32F84B
:102AC0001020521C094B23F81020401C0228F5DB73
:102AD00007480088401C064A108006480088401CB1
:102AE000044A108070470000F805002038000020DC
:102AF000C6000020360000207047704701460022C3
:102B0000002391F8392091F83A3042EA03007047E7
:102B10002DE9F0470446206805682068C6682068EB
:102B200047694FF00008C14605F00F08B8F1000FE3
:102B30000AD105F0200038B106F0200020B120466F
:102B400001F0FBFDBDE8F087B8F1000F6DD007F094
:102B5000010018B906F49070002866D005F0010055
:102B600030B106F4807018B1E06B40F00100E06312
:102B700005F0040030B107F0010018B1E06B40F03F
:102B80000200E06305F0020030B107F0010018B167
:102B9000E06B40F00400E06305F0080030B107F09E
:102BA000010018B1E06B40F00800E063E06B68B32F
:102BB00005F0200028B106F0200010B1204601F0F9
:102BC000BCFD20684069C0F38019E06B00F008008C
:102BD00010B9B9F1000F22D0204601F08EFD206817
:102BE000406900F04000B0B12068406920F040002A
:102BF00021684861606B50B11748616B0865606B74
:102C0000FEF7B0FC10B1606B016D88470CE0204608
:102C1000FFF773FF08E02046FFF76FFF04E0204650
:102C2000FFF76BFF0020E0638CE705F0800030B118
:102C300006F0800018B1204601F080FF82E705F021
:102C4000400030B106F0400018B1204601F065FDAB
:102C500078E700BF76E70000E746000810B50446B5
:102C60000CB9012010BDA06900B100E000BF94F8CC
:102C7000390028B9002084F83800204600F028F8F0
:102C8000242084F839002068C06820F400502168AE
:102C9000C860204601F09EFD2068006920F4904045
:102CA000216808612068406920F02A002168486195
:102CB0002068C06840F400502168C8600020E063CC
:102CC000202084F8390084F83A000020CAE7000088
:102CD00010B586B004463F49206888421FD100BF26
:102CE000002000903C48006840F010003A4908601D
:102CF0000846006800F01000009000BF00BF4FF4CD
:102D0000C0600190022002900120039002200490F4
:102D10000720059001A93148FEF720FE57E0304911
:102D20002068884220D100BF002000902A48001F60
:102D3000006840F400302849091F08600846006810
:102D400000F40030009000BF00BF0C200190022072
:102D5000029001200390022004900720059001A911
:102D60001E48FEF7FBFD32E01E49206888422ED146
:102D700000BF002000901848001F006840F4802029
:102D80001549091F08600846006800F4802000907B
:102D900000BF00BF0815019002200290012003909F
:102DA000022004900720059001A90F48FEF7D6FDE8
:102DB0004FF4006001900220029001200390022055
:102DC00004900720059001A90748FEF7C7FD06B04B
:102DD00010BD0000001001404438024000000240D5
:102DE00000440040004800400004024010B5034683
:102DF00093F83A00202829D101B10AB9012010BD69
:102E000000BF93F83800012801D10220F7E7012024
:102E100083F8380000BF99629A85DA850020D8636C
:102E2000222083F83A0000BF002083F8380000BF5A
:102E30001868406940F001001C6860611868C0684B
:102E400040F490701C68E0600020D8E70220D6E7CC
:102E50004E4A016891422ED14D4909782A2905D15F
:102E600001214C4A118000214B4A118048490978C0
:102E7000232905D10021474A11800121464A1180AA
:102E80004449098801297FD141490978434A128878
:102E9000C2F30D02424B995440490988491C3F4AEC
:102EA000118011460988C7296EDD0021394A118039
:102EB0003A4A118068E03B4A0168914230D13A4970
:102EC0000978AA2907D10121384A11800021384AFE
:102ED0001180384A118034490978552905D10021DB
:102EE000324A11800121324A118030490988012972
:102EF0004AD12D4909782F4A1288C2F30D022E4B70
:102F000099542C490988491C2A4A1180114609887C
:102F1000C72939DD0021254A1180264A118033E076
:102F2000264A016891422FD1254909782A2907D1DB
:102F30000121244A11800021234A1180234A118053
:102F40001F490978232905D100211E4A118001213A
:102F50001D4A11801B490988012915D11849097892
:102F60001A4A1288C2F30D02194B9954174909885D
:102F7000491C164A118011460988C72904DD002121
:102F8000104A1180114A1180704700000010014062
:102F90002C000020400000204200002024000020DF
:102FA000A001002000440040300000204400002028
:102FB000460000202E000020300300200048004082
:102FC00034000020480000204A0000203200002089
:102FD000F80300202DE9F84304460D4616461F4627
:102FE0004FF0000994F8390020285CD105B116B9DA
:102FF0000120BDE8F88300BF94F83800012801D112
:103000000220F6E7012084F8380000BF0020E063CA
:10301000212084F83900FEF7BDFD8146A684E684B0
:103020002BE0E08C401EE084A068B0F5805F16D1F4
:103030004B46002280212046009701F0B3FD08B1E5
:103040000320D6E7A846B8F80000C0F308002168BE
:103050004860206908B9AD1C0FE06D1C0DE04B46BF
:10306000002280212046009701F09CFD08B103203A
:10307000BFE715F8010B21684860E08C0028D0D12B
:103080004B46002240212046009701F08BFD08B1FD
:103090000320AEE7202084F8390000BF002084F828
:1030A000380000BFA5E70220A3E7704700BFFEE796
:1030B00010B500200F4908600F48006820F4402038
:1030C0000D4908600846006840F480200860002030
:1030D0000A49C1F8A402022002F012F801200549B1
:1030E0000860022002F00CF800200449C1F8A00298
:1030F00010BD0000A0824042000402400080404217
:1031000010B500200F4908600F48006820F44050B7
:103110000D4908600846006840F4805008600020AF
:103120000A49C1F898020A2001F0EAFF0120054986
:1031300008600A2001F0E4FF00200449C1F89C0265
:1031400010BD00009C8240420004024000804042CA
:1031500000B587B000BF002001901048006840F023
:1031600002000E4908600846006800F00200019065
:1031700000BF00BF4FF44070029001200390049004
:103180000220059002A90648FEF7E8FB0120054948
:1031900008600549C1F8A00207B000BD3038024000
:1031A00000040240A48240420080404200B587B043
:1031B00000BF002001901048006840F002000E4956
:1031C00008600846006800F00200019000BF00BFE0
:1031D000C02002900120039004900220059002A9D3
:1031E0000648FEF7BBFB0120054908600549C1F808
:1031F0009C0207B000BD00003038024000040240CD
:10320000988240420080404210B500200F4908607B
:103210000F48006820F440200D4908600846006807
:1032200040F48020086001200A49C1F8A40202206D
:1032300001F066FF012005490860022001F060FFEF
:1032400000200449C1F8A00210BD0000A082404245
:10325000000402400080404210B500200F49086081
:103260000F48006820F440500D4908600846006887
:1032700040F48050086001200A49C1F898020A20F1
:1032800001F03EFF0120054908600A2001F038FFE7
:1032900000200449C1F89C0210BD00009C824042FD
:1032A000000402400080404270B5054600241648E4
:1032B000006820F44020144908600846006808604F
:1032C000002616E0002011490860022001F018FFD6
:1032D00001200F49C1F8A0026006040E0B487C389B
:1032E000006808B1601CC4B2012001F009FF701C25
:1032F000C6B2082EE6DB15B9FFF786FF01E0FFF73F
:10330000D7FE204670BD000000040240A08240426B
:103310000080404270B5054600241648006820F43D
:10332000405014490860084600680860002616E00E
:103330000020114908600A2001F0E2FE01200F4937
:10334000C1F89C026006040E0B488438006808B17E
:10335000601CC4B2052001F0D3FE701CC6B2082E5A
:10336000E6DB15B9FFF778FF01E0FFF7C9FE20465D
:1033700070BD0000000402409C8240420080404238
:1033800070B504461548006820F4402013490860D1
:103390000846006840F4802008600020104908605A
:1033A000002517E0E0090E49091D08606006040EBB
:1033B000022001F0A5FE01200A49C1F8A002022066
:1033C00001F09EFE002006490860022001F098FEF0
:1033D000681CC5B2082DE5DB70BD0000000402408A
:1033E000A08240420080404270B504461748006801
:1033F00020F44050154908600846006840F48050A9
:103400000860002012490860002517E0E009104913
:10341000091F08606006040E0A2001F071FE0120F9
:103420000C49C1F89C020A2001F06AFE00200849FC
:1034300008600A2001F064FE681CC5B2082DE5DBB7
:1034400001200349091F086070BD0000000402400C
:103450009C8240420080404210B50F48006820F432
:1034600040200D4908600846006840F4802008604C
:1034700001200A4908600A49C1F8A002042001F0AD
:103480003FFE002005490860042001F039FE0020BD
:103490000349C1F8A00210BD00040240A4824042CA
:1034A0000080404210B50F48006820F440500D499C
:1034B00008600846006840F48050086001200A490E
:1034C00008600A49C1F89C020A2001F019FE002098
:1034D000054908600A2001F013FE00200349C1F8E5
:1034E0009C0210BD0004024098824042008040428D
:1034F00010B50F48006820F440200D4908600846C8
:10350000006840F48020086000200A4908600A49E9
:10351000C1F8A402042001F0F3FD01200549086070
:103520000549C1F8A402042001F0EAFD10BD000025
:1035300000040240A08240420080404210B5104882
:10354000006820F440500E4908600846006840F4C6
:103550008050086001200B49086000200A49C1F82A
:1035600098020A2001F0CCFD01200649091F0860DD
:103570000A2001F0C5FD00200349C1F89C0210BDDE
:10358000000402409C8240420080404210B500246A
:103590001348006820F4402011490860084600687C
:1035A000086001200F49086001F0AAFD01200E49C2
:1035B000C1F8A00201F0A4FD07E0601CC4B2FA2C1F
:1035C00003DDFFF795FF012010BD06488038006835
:1035D0000028F2D10349091F086000BFF4E700008A
:1035E00000040240A48240420080404210B5002402
:1035F0001448006820F440501249086008460068EA
:103600000860012010490860062001F079FD0120C2
:103610000E49C1F89C02062001F072FD07E0601C13
:10362000C4B2FA2C03DDFFF789FF012010BD064864
:10363000803800680028F2D10349091D086000BFE6
:10364000F4E70000000402409882404200804042BB
:1036500070B504460D460026FFF724FF2046FFF70D
:10366000C3FEFFF7C3FF2846FFF7BEFEFFF7BEFF0E
:10367000FFF718FF611CC8B2FFF7B6FEFFF7B6FFF1
:10368000C82001F03DFD0020FFF744FE0646FFF78D
:1036900055FF304670BD70B506460C461546FFF71F
:1036A00001FF3046FFF7A0FE00BFFFF79FFF002895
:1036B000FBD12046FFF798FEFFF798FF2846FFF75B
:1036C00093FEFFF793FFFFF739FF70BD2DE9F0413F
:1036D00004460D46264600224FF400511D48FEF7D1
:1036E00053FA05F0F000000405F00F0100EB013083
:1036F0000643012251031748FEF746FA00271EE051
:1037000006F0004028B1012291031248FEF73CFA6E
:1037100005E000224FF480410E48FEF735FA012201
:10372000D1030C48FEF730FA022001F0DDFC002244
:103730004FF400410748FEF727FA76007F1C182F48
:10374000DED300224FF400510248FEF71DFABDE817
:10375000F0810000001C024010B500224FF400511F
:103760001E48FEF711FA00224FF480711C48FEF744
:103770000BFA642001F0B8FC012211021848FEF790
:1037800003FA282001F0B0FC14214FF07840FFF735
:103790009DFF282001F0A8FC30214FF07840FFF772
:1037A00095FF282001F0A0FC0C214FF07840FFF796
:1037B0008DFF282001F098FC01214FF07840FFF7A1
:1037C00085FF282001F090FC06214FF07840FFF79C
:1037D0007DFF282001F088FC10BD0000001C024085
:1037E000002002401FB51348134908604FF4803091
:1037F0004860002110488160016101218161002140
:103800000162C162C1600121C16101634161FDF7D3
:1038100081FD08B1FDF720FA0A20009001200190F7
:103820000020029069460448FDF7E8FB08B1FDF767
:1038300013FA1FBD002001403406002008B500BF68
:10384000002000900648006840F4800004490860A9
:103850000846006800F48000009000BF00BF08BD6B
:103860003038024000B587B000BF00200190974873
:10387000006840F02000954908600846006800F0A4
:103880002000019000BF00BF00BF0020019008464B
:10389000006840F0800008600846006800F0800082
:1038A000019000BF00BF00BF0020019008460068E3
:1038B00040F0010008600846006800F00100019037
:1038C00000BF00BF00BF002001900846006840F024
:1038D000020008600846006800F00200019000BF86
:1038E00000BF00BF002001900846006840F00400BF
:1038F00008600846006800F00400019000BF00BFA7
:1039000000BF002001900846006840F008000860F1
:103910000846006800F00800019000BF00BF00BF2B
:10392000002001900846006840F01000086008463A
:10393000006800F01000019000BF00BF00BF002031
:1039400001900846006840F04000086008460068A2
:1039500000F04000019000BF00BF00BF00200190B8
:103960000846006840F4807008600846006800F46B
:103970008070019000BF00BFA02002900120039042
:1039800004900320059002A95148FDF7E7FF0420A9
:1039900002900120039004900320059002A94D4855
:1039A000FDF7DCFF782002900020039001200490B6
:1039B0000320059002A94748FDF7D0FF0C20029094
:1039C00000200390012004900320059002A94248A2
:1039D000FDF7C4FF4FF46040029001200390049073
:1039E0000320059002A93D48FDF7B8FF4FF4807011
:1039F00002900120039004900320059002A938480A
:103A0000FDF7ACFF4FF4A05002900120039004900A
:103A10000320059002A93048FDF7A0FF4020029046
:103A20000120039004900320059002A92D48FDF782
:103A300095FF4FF440700290012003900490032002
:103A4000059002A92248FDF789FF4FF4004002903B
:103A50000120039004900320059002A92248FDF75D
:103A60007DFF012210211C48FEF78EF80122202143
:103A70001748FEF789F8012280211548FEF784F8DF
:103A8000012204211348FEF77FF801229102124817
:103A9000FEF77AF8012211030F48FEF775F80122AC
:103AA00040211048FEF770F8012211020848FEF785
:103AB0006BF8012251020648FEF766F80122D10395
:103AC0000948FEF761F807B000BD00003038024039
:103AD000000802400010024000180240001C024092
:103AE00000200240000C02400004024010B50022F9
:103AF00004211220FEF7C6F81220FEF7B6F80022C5
:103B000001212620FEF7BEF82620FEF7AEF800229F
:103B100002212720FEF7B6F82720FEF7A6F800229C
:103B200005213820FEF7AEF83820FEF79EF8002277
:103B300003211D20FEF7A6F81D20FEF796F80A487F
:103B4000FEF74CFD00210948FEF78CFF00210848D4
:103B5000FEF788FF642207490748FDF75FFC08B1BC
:103B6000FDF77AF810BD0000F80500208005002060
:103B7000BC050020DC0600203406002000B587B01C
:103B80001548164908605920486000211348816093
:103B900040F2F311C16000210161FEF7BFFC08B1E2
:103BA000FDF75AF80D48FEF740FF08B1FDF754F84D
:103BB00060200090F92001900020029004900022E3
:103BC00069460648FEF7ADFE08B1FDF745F8034823
:103BD000FEF778FE07B000BD001C00408005002005
:103BE00000B587B015481649086059204860002183
:103BF0001348816040F2F311C16000210161FEF7BA
:103C00008DFC08B1FDF728F80D48FEF70EFF08B14E
:103C1000FDF722F860200090F9200190002002902A
:103C20000490002269460648FEF77BFE08B1FDF7C6
:103C300013F80348FEF746FE07B000BD0020004021
:103C4000BC05002000B587B013481449086042F253
:103C5000273048600021114881600921C16000219E
:103C60000161FEF75BFC08B1FCF7F6FF4FF48050F2
:103C7000039003A90948FEF7C0FC08B1FCF7ECFF6C
:103C800000200190029001A90448FEF716FC08B13B
:103C9000FCF7E2FF07B000BD00040040F80500207B
:103CA00010B50D480D4908604FF46140486000218F
:103CB0000A488160C16001610C214161002181617C
:103CC000C161FEF7CBFF08B1FCF7C6FF0122044932
:103CD0000248FFF78BF810BD0044004000050020AB
:103CE0003000002010B50D480D4908604FF4E13058
:103CF000486000210A488160C16001610C21416176
:103D000000218161C161FEF7A9FF08B1FCF7A4FFA2
:103D1000012204490248FFF769F810BD004800403D
:103D2000400500203400002000BFFEE710B53748F2
:103D30000078072867D2DFE800F02435661C0446C7
:103D40001500002210213248FDF71EFF00224021FD
:103D50002F48FDF719FFC82000F00AFA03202B496D
:103D6000087051E0C82000F003FA032027490870CA
:103D70004AE001F0DFF8642001F0B6F9FCF76EFFCD
:103D800042E09621002000F00BFA41F6641001F0A9
:103D9000ABF94FF4E671084600F002FA04201B4923
:103DA000087031E00021962000F0FAF941F6641025
:103DB00001F09AF94FF4E671084600F0F1F9042099
:103DC0001249087020E0C821084600F0E9F9C8202F
:103DD00000F0F2F901F01EF801F0ECF94FF47A73FB
:103DE00004220C490C48FFF7F5F84FF47A730322CC
:103DF0000A490948FFF7EEF807200949087004202E
:103E00000249087000E000BF00BF10BDC9000020DB
:103E10000008024085000020400500209A00002094
:103E2000C800002010B52748007803281ED00428B9
:103E300004D0052822D0062840D110E0002210210D
:103E40002148FDF7A1FE002240211F48FDF79CFEFE
:103E5000C82000F08DF903201A4908702FE0C8200F
:103E600000F086F903201749087028E001F062F895
:103E7000642001F039F9FCF7F1FE20E0C821084682
:103E800000F08EF9C82000F097F900F0C3FF01F0B0
:103E900091F94FF47A7304220C490D48FFF79AF810
:103EA0004FF47A7303220B490948FFF793F8072070
:103EB0000949087004200349087000E000BF00BFF2
:103EC00010BD0000C900002000080240850000204D
:103ED00040050020A0000020C800002010B5374891
:103EE0000078072867D2DFE800F02435661C044616
:103EF0001500012210213248FDF746FE0122402123
:103F00002F48FDF741FEC82000F032F903202B496D
:103F1000087051E0C82000F02BF9032027490870F1
:103F20004AE001F069F8642001F0DEF8FCF796FE43
:103F300042E09621002000F033F941F6641001F0D0
:103F4000D3F84FF4E671084600F02AF904201B4923
:103F5000087031E00021962000F022F941F664104B
:103F600001F0C2F84FF4E671084600F019F9042098
:103F70001249087020E0C821084600F011F9C82055
:103F800000F01AF900F046FF01F014F94FF47A73CB
:103F900004220C490C48FFF71DF84FF47A730322F2
:103FA0000A490948FFF716F8072009490870042054
:103FB0000249087000E000BF00BF10BDC90000202A
:103FC00000080240850000204005002097000020E6
:103FD000C800002010B540480078072879D2DFE8F3
:103FE00000F02434441C04571500012210213B48E2
:103FF000FDF7CAFD012240213848FDF7C5FDC82064
:1040000000F0B6F803203449087063E0C82000F0DF
:10401000AFF80320304908705CE000F0EDFF642049
:1040200001F062F8FCF71AFE54E09621002000F03F
:10403000B7F841F6641001F057F80021084600F087
:10404000AFF804202449087044E00021962000F0D5
:10405000A7F841F6641001F047F80021084600F087
:104060009FF804201C49087034E00021962000F0DD
:1040700097F841F6641001F037F80021084600F087
:104080008FF803201649087004201349087021E0B6
:10409000C821084600F084F8C82000F08DF800F030
:1040A000B9FE01F087F84FF47A7304220D490E48E7
:1040B000FEF790FF4FF47A7303220C490A48FEF78B
:1040C00089FF07200649087004200349087001E0B1
:1040D000FFE700BF00BF10BDC9000020000802407C
:1040E000C80000208500002040050020A00000201E
:1040F0007047000002480068C0F3022070470000CB
:104100000CED00E010B5002807DA0A07140E054A86
:1041100000F00F031B1FD45403E00A07130E024ADA
:10412000135410BD18ED00E000E400E07047704744
:1041300010B54FF47A73042209490A48FEF74AFF82
:104140004FF47A73032208490648FEF743FF4FF401
:104150007A73012205490348FEF73CFF10BD0000B9
:104160007D00002040050020A600002096000020D1
:1041700070B5054600244FF4E67409E0064800686F
:104180004463064800684463642000F0B9FF641E7D
:10419000AC42F3DC70BD0000BC05002080050020AF
:1041A000034A12685063034A126851637047000063
:1041B00080050020BC05002070B5054600242C4673
:1041C00009E00748006844630648006844636420C7
:1041D00000F096FF641CB4F5E67FF2DB70BD0000D2
:1041E000BC0500208005002010B5FFF7B5FA4FF49C
:1041F000FA7000F079FF08A18320FCF709FD07A100
:104200009220FCF705FD08A18920FCF701FD0AA119
:104210009920FCF7FDFC10BD41475600ECB3D1B628
:10422000CDA8D0C500000000D7D4B6AFBBAFB9A4AD
:10423000B3CCB2BF00000000B5E7D1B93A0000002E
:1042400010B54FF4E6710846FFF7AAFF00F0E2FD53
:1042500010BD10B5FDF7A4FCFEF729F910BD000054
:1042600010B592B000BF002000902F48006840F0C9
:1042700080502D4908600846006800F0805000908A
:1042800000BF00BF00BF002000902848006840F435
:104290004040264908600846006800F4404000900D
:1042A00000BF00BF01200690079002200C9041053E
:1042B0000D9108210E914FF4B4710F9102211091CC
:1042C0000421119106A8FDF7F5FE08B1FCF7C4FC26
:1042D000FDF72AFD08B1FCF7BFFC0F20019002207A
:1042E0000290002003904FF4A05004904FF48050AF
:1042F0000590052101A8FDF769FD08B1FCF7ACFCAC
:10430000FDF74CFE4FF47A71B0FBF1F42046FEF756
:10431000B4F80420FEF79CF800221146501EFDF769
:10432000B1FC12B010BD00004038024000700040E7
:104330001448006840F47000124908601248006890
:1043400040F001001049086000200F490831086062
:104350000D4800680D4908400B4908600C48091DCC
:104360000860081F006820F48020091F08600020F2
:1043700005490C3108604FF000600249803908603F
:104380007047000088ED00E000380240FFFFF6FEB5
:104390001030002410B50248FEF7C9F910BD000026
:1043A000F8050020002202682C4B98420ED0B0F194
:1043B000804F0BD02A4B984208D02A4B984205D008
:1043C000294B984202D0294B984201D1012300E0A9
:1043D00000231BB122F070024B681A431F4B984216
:1043E00020D0B0F1804F1DD01D4B98421AD01D4BEC
:1043F000984217D01C4B984214D01C4B984211D0B5
:104400001B4B98420ED01B4B98420BD01A4B984234
:1044100008D01A4B984205D0194B984202D0194B3C
:10442000984201D1012300E000231BB122F4407225
:10443000CB681A4302608B68C3620B688362074BC8
:10444000984202D0094B984201D1012300E0002399
:104450000BB10B6903630123436170470000014006
:104460000004004000080040000C0040000401402F
:104470000040014000440140004801400018004055
:10448000001C00400020004030B50023012404FA45
:1044900001F3046A9C430462046A02FA01F52C43A6
:1044A000046230BD30B50C460021816821F47F41A3
:1044B00042EA032525432943816030BD0A46002195
:1044C000816821F0700142F0070319438160704751
:1044D00030B5002400220023056A25F0010505629D
:1044E000026A4368846924F0700424F003040D68B0
:1044F0002C4322F002028D682A430F4DA84202D0BD
:104500000E4DA84201D1012500E000256DB122F039
:104510000802CD682A4322F0040223F4807323F4B6
:1045200000734D692B438D692B43436084614D6853
:104530004563026230BD00000000014000040140FC
:1045400030B5002400220023056A25F0100505621D
:10455000026A4368846924F4E04424F440740D68DA
:1045600044EA052422F020028D6842EA0512104D2B
:10457000A84202D00F4DA84201D1012500E000253C
:1045800085B122F08002CD6842EA051222F0400295
:1045900023F4806323F400634D6943EA85038D6946
:1045A00043EA8503436084614D688563026230BDE0
:1045B000000001400004014030B500240022002327
:1045C000056A25F480750562026A4368C46924F0AF
:1045D000700424F003040D682C4322F400728D68EB
:1045E00042EA0522104DA84202D0104DA84201D146
:1045F000012500E0002585B122F40062CD6842EA81
:10460000052222F4806223F4805323F400534D6981
:1046100043EA05138D6943EA05134360C4614D689D
:10462000C563026230BD000000000140000401408B
:1046300030B5002200230024056A25F48055056268
:10464000036A4468C26922F4E04222F440720D68B1
:1046500042EA052223F400538D6843EA05330A4DEC
:10466000A84202D0094DA84201D1012500E0002551
:1046700025B124F480444D6944EA85144460C26144
:104680004D680564036230BD000001400004014034
:1046900030B50B46144600210022026A056A25F057
:1046A00001050562816921F0F00141EA041122F05F
:1046B0000A021A438161026230BD30B50B461446CE
:1046C00000210022056A25F0100505628169026A51
:1046D00021F4704141EA043122F0A00242EA0312BF
:1046E0008161026230BD70B50546AC6B0020E0858B
:1046F000E0842046FEF701FA70BD0168C96821F424
:1047000090710268D1600168496921F00101026875
:104710005161202180F83A10704710B50446206896
:10472000C06820F040002168C860202084F839006B
:104730002046FEF7BAFC002010BD70B5044694F880
:104740003A00222844D1A068B0F5805F13D1A56A51
:10475000206940B920684068C0F308002880A06A3A
:10476000801CA06219E020684068C0B22880A06A5E
:10477000401CA06211E0206938B920684068C1B2CD
:10478000A26A501CA062117007E02068406800F027
:104790007F01A26A501CA0621170E08D401E80B2A1
:1047A000E08598B92068C06820F490702168C860DE
:1047B0002068406920F0010021684861202084F8C9
:1047C0003A002046FEF744FB002070BD0020FCE7C5
:1047D0000220FAE72DE9F04104460025206805692A
:1047E00025F44055E0680543206805612068C568E8
:1047F00049F20C6085432169A06808436169084358
:10480000E169084305432068C5602068456925F4CF
:104810004075A069054320684561E069B0F5004F27
:104820007ED1C4492068884203D0C34920688842A9
:104830005DD1FDF7CFFB00EBC00101EB001061681B
:104840004900B0FBF1F06421B0FBF1F00601FDF787
:10485000C1FB00EBC00101EB001061684900B0FB37
:10486000F1F7FDF7B7FB00EBC00101EB0010616849
:104870004900B0FBF1F06421B0FBF1F000EBC001A6
:1048800001EB0010A7EB8000322101EBC000642196
:10489000B0FBF1F000F0F80006EB4006FDF79AFBE4
:1048A00000EBC00101EB001061684900B0FBF1F7BB
:1048B000FDF790FB00EBC00101EB001061684900BF
:1048C000B0FBF1F06421B0FBF1F000EBC00101EBB3
:1048D0000010A7EB8000322101EBC0006421B0FB87
:1048E000F1F000F0070030442168886020E1FDF716
:1048F0005BFB00EBC00101EB001061684900B0FBFD
:10490000F1F06421B0FBF1F00601FDF74DFB00EB87
:10491000C00101EB001061684900B0FBF1F700E055
:1049200045E0FDF741FB00EBC00101EB00106168C1
:104930004900B0FBF1F06421B0FBF1F000EBC001E5
:1049400001EB0010A7EB8000322101EBC0006421D5
:10495000B0FBF1F000F0F80006EB4006FDF724FB99
:1049600000EBC00101EB001061684900B0FBF1F7FA
:10497000FDF71AFB00EBC00101EB00106168490074
:10498000B0FBF1F06421B0FBF1F000EBC00101EBF2
:104990000010A7EB8000322101EBC0006421B0FBC6
:1049A000F1F000F00700304421688860C0E0614900
:1049B0002068884203D06049206888425CD1FDF7B6
:1049C00009FB00EBC00101EB001061688900B0FB3E
:1049D000F1F6FDF7FFFA00EBC00101EB0010616892
:1049E0008900B0FBF1F06421B0FBF1F000EBC001F5
:1049F00001EB0010A6EB8000322101EB00106421D6
:104A0000B0FBF1F000F0F006FDF7E4FA00EBC001B6
:104A100001EB001061688900B0FBF1F06421B0FB8C
:104A2000F1F006EB0016FDF7D5FA00EBC00101EB43
:104A3000001061688900B0FBF1F7FDF7CBFA00EBDD
:104A4000C00101EB001061688900B0FBF1F0642146
:104A5000B0FBF1F000EBC00101EB0010A7EB800010
:104A6000322101EB00106421B0FBF1F000F00F00E7
:104A70003044216888605BE0FDF796FA00EBC001E6
:104A800001EB001061688900B0FBF1F6FDF78CFACC
:104A900000EBC00101EB001061688900B0FBF1F090
:104AA0006421B0FBF1F000EBC00101EB0010A6EBBC
:104AB0008000322101EB00106421B0FBF1F000F026
:104AC000F006FDF771FA00EBC00101EB0010616820
:104AD0008900B0FBF1F06421B0FBF1F006EB0016A9
:104AE000FDF762FA00EBC00101EB0010616889007C
:104AF000B0FBF1F7FDF758FA00EBC00101EB001035
:104B000061688900B0FBF1F06421B0FBF1F000EBCB
:104B1000C00101EB0010A7EB8000322101EB001077
:104B20006421B0FBF1F000F00F0030442168886090
:104B3000BDE8F0810010014000140140014691F8E9
:104B4000390021282CD18868B0F5805F0FD10A6A1E
:104B50001088C0F308000B685860086918B9086A23
:104B6000801C086209E0086A401C086205E00B6AC4
:104B7000581C086218780B685860C88C401E80B2B8
:104B8000C88458B90868C06820F080000B68D860F5
:104B90000868C06840F040000B68D860002070478B
:104BA0000220FCE72DE9F04104460D4617469846E1
:104BB000069E22E0174886421FD02EB1FCF7EAFF7E
:104BC000A0EB0800B04218D92068C06820F4D0706B
:104BD0002168C8602068406920F0010021684861B0
:104BE000202084F8390084F83A0000BF002084F8BF
:104BF000380000BF0320BDE8F0812068006828402D
:104C0000A84201D1012000E00020B842D2D000200B
:104C1000F1E70000FFFF0F0010B500240F48FDF77B
:104C200077FF00BF04E0641CB4F5801F00D304E0EC
:104C30000A48FDF763FF2028F5D100BF002404E0F7
:104C4000641CB4F5801F00D306E001220449034828
:104C5000FEF7CCF80028F3D100BF10BDC00400203F
:104C60002C00002010B500241248FDF751FF00BFB2
:104C700004E0641CB4F5801F00D304E00D48FDF788
:104C80003DFF2028F5D100BF002409E0641CB4F5E5
:104C9000801F05D3012208490648FEF7A7F806E061
:104CA000012205490348FEF7A1F80028EED100BF14
:104CB00010BD0000000500203000002010B50024C9
:104CC0001248FDF725FF00BF04E0641CB4F5801F07
:104CD00000D304E00D48FDF711FF2028F5D100BFF7
:104CE000002409E0641CB4F5801F05D301220849A3
:104CF0000648FEF77BF806E0012205490348FEF767
:104D000075F80028EED100BF10BD0000400500205E
:104D10003400002070B50024002518490988880057
:104D200000F0F4FA1649086000BF07E0182000F010
:104D3000EDFA1349096841F82400641C0F48008803
:104D40008442F3DB002413E000250EE004EB440072
:104D5000082101EB400028440A49085C0849096819
:104D600051F8241041F825006D1C062DEEDB641C63
:104D7000024800888442E7DB70BD00005400002038
:104D8000280000206802002010B500241A4800887E
:104D900001282FD119484078572826D11748807804
:104DA000412822D11548C07859281ED114480078CE
:104DB0001449087000BF04E01048005D124908550E
:104DC000641C104800788442F6DD0F48C079303802
:104DD0000D498979303901EB810100EB41000B4924
:104DE0000880FFF797FF012010BD002002490880CE
:104DF000034908800020F7E74A000020F80300205C
:104E000032000020350000206802002054000020FD
:104E100000BFFEE770B52DA19820FBF7F9FE062232
:104E200064212C48FBF7F0F940F23E3100FB01F51C
:104E3000E81705EB90508012274908600846006883
:104E4000C83008600846006842F21071B0FBF1F00B
:104E5000224908702048006842F21071B0FBF1F25C
:104E600001FB12004FF47A71B0FBF1F01B4948705E
:104E70000A208870184800684FF47A71B0FBF1F28C
:104E800001FB12006421B0FBF1F01449C870124814
:104E900000686421B0FBF1F201FB12000A21B0FBB3
:104EA000F1F00E4908710B20487100240BE00B480B
:104EB000005D0B4A115C4FF07A40FEF707FC0320BF
:104EC00000F012F9641C062CF1DB70BDB5E7D1B916
:104ED0003A000000DC0600206C0000206400002086
:104EE00070000020014A024900F013B8495100083F
:104EF000CC00002002E008C8121F08C1002AFAD125
:104F000070477047002001E001C1121F002AFBD149
:104F100070472DE9F04116460F460446002503E090
:104F20003946B047641C6D1C20780028F8D128460B
:104F3000BDE8F08110B500240021E820FCF702F85C
:104F400004462548006801281CD1012C0AD1012201
:104F500041032248FCF718FEFBF7FAFA20A0FFF7FE
:104F6000C1FF37E02CB9FBF7F3FA1EA0FFF7BAFF39
:104F700030E0022C2ED10020174908601AA0FFF75C
:104F8000B1FF27E0012C0BD1012251031348FCF79C
:104F9000FBFD01201049086014A0FFF7A3FF19E0F2
:104FA00034B901200C49086011A0FFF79BFF11E004
:104FB000022C0FD14FF4E6710846FFF7F1F80122F9
:104FC00051030648FCF7E0FD00200349086009A0F2
:104FD000FFF788FF10BD00003C00002000000240E9
:104FE000310A0000300A0000320A0000330A0000D3
:104FF000340A0000350A000010B500240121D02039
:10500000FBF7A0FF04462A480068012821D1012CA3
:105010000AD1012241032748FCF7B6FDFBF718FC33
:1050200025A0FFF75FFF42E02CB9FBF711FC23A09E
:10503000FFF758FF3BE0022C39D1012251031D48F4
:10504000FCF7A2FD00201A4908601DA0FFF74AFFE7
:105050002DE0012C0ED1012251031648FCF794FDDE
:1050600006201849087001201149086016A0FFF7B2
:1050700039FF1CE04CB906201249087001200C4988
:10508000086012A0FFF72EFF11E0022C0FD14FF4A1
:10509000E6710846FFF784F8012251030548FCF742
:1050A00073FD00200249086009A0FFF71BFF10BD37
:1050B0003C00002000000240310A0000300A0000DD
:1050C000320A0000C9000020330A0000340A000040
:1050D000350A000010B504460420FDF7B9F901486F
:1050E000046010BD0400002030B50446002504E033
:1050F0004FF47A7000F004F86D1CA542F8D330BD6F
:1051000070B5034600224FF0E02675690D4E3668F3
:1051100003FB06F44FF0E026B16910E04FF0E02603
:10512000B06988420BD0884202D20E1A324402E0A3
:105130002E1A0E4432440146A24200D300E0EDE7AD
:1051400000BF70BD0400002013B50C464FF6FF737E
:10515000012269460248FDF73DFF00981CBD000092
:105160004005002010B5002821D0114B0022001F5F
:10517000196803E0814203D80A4649680029F9D139
:1051800052B11368841A9C4204D10068184410601C
:10519000104602E0506000E0186039B102680B1A56
:1051A000934203D10B681A4402604968416010BD04
:1051B000D000002010B5002400BF06E007490968B0
:1051C00051F82400FFF7CEFF641C05480088844294
:1051D000F4DB02480068FFF7C5FF10BD280000207F
:1051E0005400002000F0C8F885E043480078092802
:1051F0007FD2DFE800F00D05536B6F727B467500C0
:10520000FBF720FDFEF794FF00203B49087071E09A
:105210003A480088012833D139480079662807D1F7
:1052200037484079772803D103203349087022E0BA
:1052300033480079622807D1314840796B2803D17F
:1052400005202D49087016E02D480079722807D1F5
:105250002B4840796B2803D10620274908700AE0C3
:10526000274800796F2806D1254840796B2802D15C
:105270000720214908700020204908802149088022
:1052800038E0FFF781FD012807D100201B49088085
:105290001C4908800220184908702BE01A48007940
:1052A000772807D118484079742803D1042012497F
:1052B00008700AE014480079722806D11248407933
:1052C0006B2802D106200C49087013E0FEF72EFD72
:1052D00010E00EE0FEF7A6FD0CE0FEF7FFFD09E092
:1052E000FEF7AEFF00200449087003E0FEF772FEEF
:1052F00000E000BF00BF78E7C80000204A0000209F
:10530000F80300203200002068020020F0B50B30C6
:10531000154D20F007010024144A0FE003688B426A
:105320000BD38B4205D95E1A43184768C3E900675F
:1053300000E04368136002C004E0021D106800280A
:10534000ECD12046002802D1286808B10020F0BD29
:10535000064A07481060074A121A22F00702C0E9FD
:10536000002401202860D7E7D4000020D0000020CE
:10537000AC070020A809002010B5FCF719FCFEF7C7
:105380006FFFB420FFF7A6FEFEF76CFAFEF756FAA1
:10539000FEF786FCFEF7A6FCFEF7F0FBFEF720FC0E
:1053A000FEF750FCFEF71EFAFDF700FFFDF7D0FEFA
:1053B000FEF79CFBFEF718FFFFF72CFD4FF4FA7089
:1053C000FFF792FE10BD0006101600061016000032
:1053D000000001020304010203040607080900009B
:1053E0000054000800000020D8000000F44E00081F
:1053F000D8540008D8000020D00C0000044F00084A
:105400000024F40000000000000000000000000084
:10541000000000000000000000000000000000008C
:10542000000000000000000000000000000000007C
:10543000000000000000000000000000010000006B
:10544000000000000000000000000000000000005C
:10545000000000000000D007D0070000000000009E
:10546000000000000000000000000000000000003C
:10547000303132333435363738392E76002A4F42C0
:105480004A2A5452412A54534B2A4C4F436677239D
:10549000626B23726B2323726D23626D23666D230F
:1054A00077742330313200000030303030AA0920C8
:1054B0000000000003000255AA021055AA0212556E
:1054C000AA03110355002A03010400000000000094
:0854D0000000000000000000D4
:04000005080001AD41
:00000001FF
